{
  "contractName": "Junqi",
  "abi": [
    {
      "anonymous": false,
      "inputs": [
        {
          "indexed": true,
          "internalType": "address",
          "name": "from",
          "type": "address"
        },
        {
          "indexed": false,
          "internalType": "uint256",
          "name": "gameID",
          "type": "uint256"
        }
      ],
      "name": "GameIDs",
      "type": "event"
    },
    {
      "inputs": [
        {
          "internalType": "uint256",
          "name": "",
          "type": "uint256"
        }
      ],
      "name": "games",
      "outputs": [
        {
          "internalType": "address",
          "name": "p1",
          "type": "address"
        },
        {
          "internalType": "address",
          "name": "p2",
          "type": "address"
        },
        {
          "internalType": "uint64",
          "name": "board1",
          "type": "uint64"
        },
        {
          "internalType": "uint64",
          "name": "board2",
          "type": "uint64"
        },
        {
          "internalType": "uint256",
          "name": "turn",
          "type": "uint256"
        },
        {
          "internalType": "bool",
          "name": "active",
          "type": "bool"
        },
        {
          "internalType": "uint64",
          "name": "winner",
          "type": "uint64"
        },
        {
          "internalType": "bool",
          "name": "exists",
          "type": "bool"
        },
        {
          "internalType": "uint64",
          "name": "lastMoves",
          "type": "uint64"
        }
      ],
      "stateMutability": "view",
      "type": "function",
      "constant": true
    },
    {
      "inputs": [],
      "name": "declare",
      "outputs": [],
      "stateMutability": "nonpayable",
      "type": "function"
    },
    {
      "inputs": [
        {
          "internalType": "uint256",
          "name": "gameID",
          "type": "uint256"
        }
      ],
      "name": "join",
      "outputs": [],
      "stateMutability": "nonpayable",
      "type": "function"
    },
    {
      "inputs": [],
      "name": "place",
      "outputs": [],
      "stateMutability": "nonpayable",
      "type": "function"
    },
    {
      "inputs": [],
      "name": "move",
      "outputs": [],
      "stateMutability": "nonpayable",
      "type": "function"
    }
  ],
  "bytecode": "0x608060405260016000806101000a81548167ffffffffffffffff021916908367ffffffffffffffff16021790555060008060086101000a81548167ffffffffffffffff021916908367ffffffffffffffff16021790555060008060106101000a81548167ffffffffffffffff021916908367ffffffffffffffff16021790555034801561008b57600080fd5b506108a78061009b6000396000f3fe608060405234801561001057600080fd5b50600436106100575760003560e01c8063049878f31461005c578063117a5b90146100785780633ec48a2e146100b05780634ccde688146100ba57806393cca918146100c4575b600080fd5b61007660048036038101906100719190610593565b6100ce565b005b610092600480360381019061008d9190610593565b610255565b6040516100a79998979695949392919061064e565b60405180910390f35b6100b861034d565b005b6100c261034f565b005b6100cc610556565b005b60006001600083815260200190815260200160002090508060040160099054906101000a900460ff16801561011257508060040160009054906101000a900460ff16155b61011b57600080fd5b3373ffffffffffffffffffffffffffffffffffffffff168160000160009054906101000a900473ffffffffffffffffffffffffffffffffffffffff1673ffffffffffffffffffffffffffffffffffffffff16141561017857600080fd5b338160010160006101000a81548173ffffffffffffffffffffffffffffffffffffffff021916908373ffffffffffffffffffffffffffffffffffffffff16021790555060008160020160006101000a81548167ffffffffffffffff021916908367ffffffffffffffff16021790555060018160040160006101000a81548160ff0219169083151502179055506000601081819054906101000a900467ffffffffffffffff168092919061022a9061070a565b91906101000a81548167ffffffffffffffff021916908367ffffffffffffffff160217905550505050565b60016020528060005260406000206000915090508060000160009054906101000a900473ffffffffffffffffffffffffffffffffffffffff16908060010160009054906101000a900473ffffffffffffffffffffffffffffffffffffffff16908060010160149054906101000a900467ffffffffffffffff16908060020160009054906101000a900467ffffffffffffffff16908060030154908060040160009054906101000a900460ff16908060040160019054906101000a900467ffffffffffffffff16908060040160099054906101000a900460ff169080600401600a9054906101000a900467ffffffffffffffff16905089565b565b6000620f422f604560008054906101000a900467ffffffffffffffff16610376919061073b565b61038091906107ac565b90505b600160008267ffffffffffffffff16815260200190815260200160002060040160099054906101000a900460ff16156103d857620f422f6001826103c791906107dd565b6103d191906107ac565b9050610383565b806000806101000a81548167ffffffffffffffff021916908367ffffffffffffffff1602179055506000600160008367ffffffffffffffff1681526020019081526020016000209050338160000160006101000a81548173ffffffffffffffffffffffffffffffffffffffff021916908373ffffffffffffffffffffffffffffffffffffffff16021790555060008160010160146101000a81548167ffffffffffffffff021916908367ffffffffffffffff1602179055506001816003018190555060008160040160006101000a81548160ff0219169083151502179055506000600881819054906101000a900467ffffffffffffffff16809291906104dd9061070a565b91906101000a81548167ffffffffffffffff021916908367ffffffffffffffff160217905550503373ffffffffffffffffffffffffffffffffffffffff167f0b00eaed7a0d55952ef3dd90aadf03196cf0a192aec8f034c574b5bf7ab4f0ea8360405161054a9190610856565b60405180910390a25050565b565b600080fd5b6000819050919050565b6105708161055d565b811461057b57600080fd5b50565b60008135905061058d81610567565b92915050565b6000602082840312156105a9576105a8610558565b5b60006105b78482850161057e565b91505092915050565b600073ffffffffffffffffffffffffffffffffffffffff82169050919050565b60006105eb826105c0565b9050919050565b6105fb816105e0565b82525050565b600067ffffffffffffffff82169050919050565b61061e81610601565b82525050565b61062d8161055d565b82525050565b60008115159050919050565b61064881610633565b82525050565b600061012082019050610664600083018c6105f2565b610671602083018b6105f2565b61067e604083018a610615565b61068b6060830189610615565b6106986080830188610624565b6106a560a083018761063f565b6106b260c0830186610615565b6106bf60e083018561063f565b6106cd610100830184610615565b9a9950505050505050505050565b7f4e487b7100000000000000000000000000000000000000000000000000000000600052601160045260246000fd5b600061071582610601565b915067ffffffffffffffff8214156107305761072f6106db565b5b600182019050919050565b600061074682610601565b915061075183610601565b92508167ffffffffffffffff0483118215151615610772576107716106db565b5b828202905092915050565b7f4e487b7100000000000000000000000000000000000000000000000000000000600052601260045260246000fd5b60006107b782610601565b91506107c283610601565b9250826107d2576107d161077d565b5b828206905092915050565b60006107e882610601565b91506107f383610601565b92508267ffffffffffffffff038211156108105761080f6106db565b5b828201905092915050565b6000819050919050565b600061084061083b61083684610601565b61081b565b61055d565b9050919050565b61085081610825565b82525050565b600060208201905061086b6000830184610847565b9291505056fea264697066735822122047bd63639313d71557b51985a999a7d7081cbb91323f6f5eaee64ff6afc0ad9164736f6c634300080a0033",
  "immutableReferences": {},
  "source": "// SPDX-License-Identifier: MIT\npragma solidity >=0.4.22 <0.9.0;\ncontract Junqi {\n  uint64 constant g = 69;\n  uint64 constant p = 999983;\n\n  uint64 last_id = 1;\n  uint64 n_games = 0;\n  uint64 n_activegames = 0;\n\n  struct Game{\n      address p1;\n      address p2;\n      uint64 board1;\n      uint64 board2;\n      uint turn; // 1 for p1, 2 for p2\n      bool active; // two player ready\n      uint64 winner;\n      bool exists; // ?\n      uint64 lastMoves; // ?\n  }\n\n  event GameIDs(address indexed from, uint gameID);\n\n  mapping(uint => Game) public games;\n\n  function declare() external {\n    // pseudorandom gameID\n    uint64 gameID = (last_id * g) % p;\n    while (games[gameID].exists) {\n      gameID = (gameID + 1) % p;\n    }\n    last_id = gameID;\n    \n    Game storage game = games[gameID];\n\n    game.p1 = msg.sender;\n    game.board1 = 0;\n    game.turn = 1;\n    game.active = false;\n    \n    n_games++;\n\n    emit GameIDs(msg.sender, gameID);\n  }\n  function join(uint gameID) external {\n    Game storage game = games[gameID];\n    require(game.exists && !game.active);\n    require(game.p1 != msg.sender);\n    game.p2 = msg.sender;\n    game.board2 = 0;\n\n    game.active = true;\n    n_activegames++;\n  }\n  function place () external {\n\n  }\n  function move () external {\n\n  }\n  function checkGameEnd() internal{\n\n  }\n}",
  "sourcePath": "/home/yxcy/Desktop/online-junqi-smart-contract/smart_contract/contracts/Junqi.sol",
  "compiler": {
    "name": "solc",
    "version": "0.8.10+commit.fc410830.Emscripten.clang"
  },
  "schemaVersion": "3.4.3",
  "updatedAt": "2021-11-25T16:31:18.649Z",
  "networkType": "ethereum",
  "devdoc": {
    "kind": "dev",
    "methods": {},
    "version": 1
  },
  "userdoc": {
    "kind": "user",
    "methods": {},
    "version": 1
  }
}