{
  "contractName": "Junqi",
  "abi": [
    {
      "anonymous": false,
      "inputs": [
        {
          "indexed": false,
          "internalType": "uint256",
          "name": "index",
          "type": "uint256"
        },
        {
          "indexed": false,
          "internalType": "uint256",
          "name": "gameID",
          "type": "uint256"
        }
      ],
      "name": "FinishSetup",
      "type": "event"
    },
    {
      "anonymous": false,
      "inputs": [
        {
          "indexed": true,
          "internalType": "address",
          "name": "from",
          "type": "address"
        },
        {
          "indexed": false,
          "internalType": "uint256",
          "name": "gameID",
          "type": "uint256"
        }
      ],
      "name": "GameIDs",
      "type": "event"
    },
    {
      "anonymous": false,
      "inputs": [
        {
          "indexed": false,
          "internalType": "uint256",
          "name": "index",
          "type": "uint256"
        },
        {
          "indexed": false,
          "internalType": "uint256",
          "name": "gameID",
          "type": "uint256"
        }
      ],
      "name": "Join",
      "type": "event"
    },
    {
      "anonymous": false,
      "inputs": [
        {
          "indexed": false,
          "internalType": "string",
          "name": "moveString",
          "type": "string"
        },
        {
          "indexed": false,
          "internalType": "string",
          "name": "rankString",
          "type": "string"
        },
        {
          "indexed": false,
          "internalType": "int8",
          "name": "turn",
          "type": "int8"
        },
        {
          "indexed": false,
          "internalType": "uint256",
          "name": "gameID",
          "type": "uint256"
        },
        {
          "indexed": false,
          "internalType": "uint64",
          "name": "id",
          "type": "uint64"
        }
      ],
      "name": "Move",
      "type": "event"
    },
    {
      "anonymous": false,
      "inputs": [
        {
          "indexed": false,
          "internalType": "int8",
          "name": "player",
          "type": "int8"
        },
        {
          "indexed": false,
          "internalType": "uint256",
          "name": "gameID",
          "type": "uint256"
        }
      ],
      "name": "Win",
      "type": "event"
    },
    {
      "inputs": [
        {
          "internalType": "uint256",
          "name": "",
          "type": "uint256"
        }
      ],
      "name": "gameList",
      "outputs": [
        {
          "internalType": "uint256",
          "name": "",
          "type": "uint256"
        }
      ],
      "stateMutability": "view",
      "type": "function",
      "constant": true
    },
    {
      "inputs": [
        {
          "internalType": "uint256",
          "name": "",
          "type": "uint256"
        }
      ],
      "name": "games",
      "outputs": [
        {
          "internalType": "address",
          "name": "p1",
          "type": "address"
        },
        {
          "internalType": "address",
          "name": "p2",
          "type": "address"
        },
        {
          "internalType": "uint256",
          "name": "board1_hash",
          "type": "uint256"
        },
        {
          "internalType": "uint256",
          "name": "board2_hash",
          "type": "uint256"
        },
        {
          "internalType": "uint64",
          "name": "move_event_id",
          "type": "uint64"
        },
        {
          "internalType": "int8",
          "name": "turn",
          "type": "int8"
        },
        {
          "internalType": "uint8",
          "name": "wait_attack_move_proof",
          "type": "uint8"
        },
        {
          "internalType": "bool",
          "name": "active",
          "type": "bool"
        },
        {
          "internalType": "bool",
          "name": "p1_finish_setup",
          "type": "bool"
        },
        {
          "internalType": "bool",
          "name": "p2_finish_setup",
          "type": "bool"
        },
        {
          "internalType": "bool",
          "name": "finish_setup",
          "type": "bool"
        },
        {
          "internalType": "bool",
          "name": "exists",
          "type": "bool"
        }
      ],
      "stateMutability": "view",
      "type": "function",
      "constant": true
    },
    {
      "inputs": [],
      "name": "n_games",
      "outputs": [
        {
          "internalType": "uint64",
          "name": "",
          "type": "uint64"
        }
      ],
      "stateMutability": "view",
      "type": "function",
      "constant": true
    },
    {
      "inputs": [
        {
          "internalType": "uint256",
          "name": "",
          "type": "uint256"
        }
      ],
      "name": "proofs",
      "outputs": [
        {
          "internalType": "bool",
          "name": "wait_player1_proof",
          "type": "bool"
        },
        {
          "internalType": "bool",
          "name": "wait_player2_proof",
          "type": "bool"
        },
        {
          "internalType": "uint256",
          "name": "player1_end_square_rank",
          "type": "uint256"
        },
        {
          "internalType": "uint256",
          "name": "player2_end_square_rank",
          "type": "uint256"
        },
        {
          "internalType": "uint256",
          "name": "player1_mpc_reuslt",
          "type": "uint256"
        },
        {
          "internalType": "uint256",
          "name": "player2_mpc_result",
          "type": "uint256"
        }
      ],
      "stateMutability": "view",
      "type": "function",
      "constant": true
    },
    {
      "inputs": [],
      "name": "declare",
      "outputs": [],
      "stateMutability": "nonpayable",
      "type": "function"
    },
    {
      "inputs": [
        {
          "internalType": "uint256",
          "name": "gameID",
          "type": "uint256"
        }
      ],
      "name": "join",
      "outputs": [],
      "stateMutability": "nonpayable",
      "type": "function"
    },
    {
      "inputs": [
        {
          "internalType": "uint256",
          "name": "gameID",
          "type": "uint256"
        },
        {
          "internalType": "uint256[2]",
          "name": "a",
          "type": "uint256[2]"
        },
        {
          "internalType": "uint256[2][2]",
          "name": "b",
          "type": "uint256[2][2]"
        },
        {
          "internalType": "uint256[2]",
          "name": "c",
          "type": "uint256[2]"
        },
        {
          "internalType": "uint256[4]",
          "name": "input",
          "type": "uint256[4]"
        }
      ],
      "name": "finishSetup",
      "outputs": [],
      "stateMutability": "nonpayable",
      "type": "function"
    },
    {
      "inputs": [
        {
          "internalType": "string",
          "name": "moveString",
          "type": "string"
        },
        {
          "internalType": "string",
          "name": "rankString",
          "type": "string"
        },
        {
          "internalType": "uint256",
          "name": "gameID",
          "type": "uint256"
        },
        {
          "internalType": "uint256[2]",
          "name": "a",
          "type": "uint256[2]"
        },
        {
          "internalType": "uint256[2][2]",
          "name": "b",
          "type": "uint256[2][2]"
        },
        {
          "internalType": "uint256[2]",
          "name": "c",
          "type": "uint256[2]"
        },
        {
          "internalType": "uint256[11]",
          "name": "input",
          "type": "uint256[11]"
        }
      ],
      "name": "move",
      "outputs": [],
      "stateMutability": "nonpayable",
      "type": "function"
    }
  ],
  "bytecode": "0x6080604052600080546001600160c01b031916600117905534801561002357600080fd5b506140ef806100336000396000f3fe608060405234801561001057600080fd5b50600436106100885760003560e01c80637cb4c8131161005b5780637cb4c813146101da5780639ddaf5aa1461020c578063c6cfd08e14610280578063f18b08c7146102ae57600080fd5b8063049878f31461008d578063117a5b90146100a25780634cc88237146101bf5780634ccde688146101d2575b600080fd5b6100a061009b366004611073565b6102c1565b005b61013e6100b0366004611073565b60026020819052600091825260408220805460018201549282015460038301546004909301546001600160a01b039283169594909216939092916001600160401b03811691600160401b8204900b9060ff600160481b8204811691600160501b8104821691600160581b8204811691600160601b8104821691600160681b8204811691600160701b9004168c565b604080516001600160a01b039d8e1681529c909b1660208d0152998b019890985260608a01969096526001600160401b03909416608089015260009290920b60a088015260ff1660c0870152151560e08601521515610100850152151561012084015215156101408301521515610160820152610180015b60405180910390f35b6100a06101cd36600461118c565b6103d5565b6100a0610718565b6000546101f490600160401b90046001600160401b031681565b6040516001600160401b0390911681526020016101b6565b61025161021a366004611073565b600360205260009081526040902080546009820154600a830154600b840154600c9094015460ff8085169561010090950416939086565b6040805196151587529415156020870152938501929092526060840152608083015260a082015260c0016101b6565b6102a061028e366004611073565b60016020526000908152604090205481565b6040519081526020016101b6565b6100a06102bc3660046112da565b6108e0565b60008181526002602052604090206004810154600160701b900460ff1680156102f657506004810154600160501b900460ff16155b6102ff57600080fd5b80546001600160a01b031633141561031657600080fd5b6001810180546001600160a01b0319163317905560006003820181905560048201805462ff00ff60501b1916600160501b17905580546001600160401b03600160801b90910416906010610369836113e7565b91906101000a8154816001600160401b0302191690836001600160401b03160217905550507f735ef78aed2bd4cfae4d08680b7cb333d4aa561d0287a81d4abbac0b4b64d5896001836040516103c9929190918252602082015260400190565b60405180910390a15050565b600085815260026020908152604080832060039092529091206004820154600160701b900460ff16801561041457506004820154600160501b900460ff165b801561042c57506004820154600160681b900460ff16155b61043557600080fd5b81546001600160a01b0316331415610570576004820154600160581b900460ff1615156001141561046557600080fd5b600060405161047390611059565b604051809103906000f08015801561048f573d6000803e3d6000fd5b50604051635fe8c13b60e01b81529091506001600160a01b03821690635fe8c13b906104c5908a908a908a908a9060040161148f565b602060405180830381865afa1580156104e2573d6000803e3d6000fd5b505050506040513d601f19601f8201168201806040525081019061050691906114ec565b151560011461051457600080fd5b60048301805460ff60581b1916600160581b179055835160028401556040805160008152602081018a90527fef1aeead3a48aa63ba839793f58e4a7a038dcba7a2b9c6fd48f586bf2c6ec59c910160405180910390a1506106aa565b60018201546001600160a01b03163314156106aa576004820154600160601b900460ff161515600114156105a357600080fd5b60006040516105b190611059565b604051809103906000f0801580156105cd573d6000803e3d6000fd5b50604051635fe8c13b60e01b81529091506001600160a01b03821690635fe8c13b90610603908a908a908a908a9060040161148f565b602060405180830381865afa158015610620573d6000803e3d6000fd5b505050506040513d601f19601f8201168201806040525081019061064491906114ec565b151560011461065257600080fd5b60048301805460ff60601b1916600160601b179055835160038401556040805160018152602081018a90527fef1aeead3a48aa63ba839793f58e4a7a038dcba7a2b9c6fd48f586bf2c6ec59c910160405180910390a1505b6004820154600160581b900460ff16151560011480156106da57506004820154600160601b900460ff1615156001145b1561070f5760048201805460ff60681b1916600160681b178155815461010161ffff19909116178255805460ff60481b191690555b50505050505050565b60008054620f422f90610736906045906001600160401b0316611515565b6107409190611544565b90505b6001600160401b038116600090815260026020526040902060040154600160701b900460ff161561078e57620f422f61077d826001611578565b6107879190611544565b9050610743565b600080546001600160401b0380841667ffffffffffffffff199092168217835581835260026020818152604080862080546001600160a01b031916331781559283018690556004830180546effff00ffff00ffffffffffffffffff19166e010000000000ff00000000000000001790558554600160401b90819004851687526001909252852093909355835490939290041690600861082c836113e7565b91906101000a8154816001600160401b0302191690836001600160401b0316021790555050336001600160a01b03167f0b00eaed7a0d55952ef3dd90aadf03196cf0a192aec8f034c574b5bf7ab4f0ea8360405161089991906001600160401b0391909116815260200190565b60405180910390a260408051600081526001600160401b03841660208201527f735ef78aed2bd4cfae4d08680b7cb333d4aa561d0287a81d4abbac0b4b64d58991016103c9565b600085815260026020908152604080832060039092529091206004820154600160701b900460ff16801561091f57506004820154600160501b900460ff165b801561093657506004820154600160681b900460ff165b61093f57600080fd5b604051612d3160f01b6020820152602201604051602081830303815290604052805190602001208860405160200161097791906115cf565b604051602081830303815290604052805190602001201415610ac85781546001600160a01b03163314156109c7576109b460008888888888610cee565b15156001146109c257600080fd5b6109e4565b6109d660018888888888610cee565b15156001146109e457600080fd5b805460ff61010090910416151560011480610a055750805460ff1615156001145b15610aac5760048201546040517f4c145c32fa51dcba135e9e04ac24023a29e2634d638239348ddb2096b6f8f15b91610a5a918c918c91600160401b820460000b918d916001600160401b0390911690611617565b60405180910390a160048201805460019190600090610a839084906001600160401b0316611578565b92506101000a8154816001600160401b0302191690836001600160401b03160217905550610ce3565b610ab587610f6f565b1515600114610ac357600080fd5b610ce3565b805460ff1615156001148015610aea5750805460ff6101009091041615156001145b8015610b0257506004820154600160481b900460ff16155b15610bbd5760048201546040517f4c145c32fa51dcba135e9e04ac24023a29e2634d638239348ddb2096b6f8f15b91610b57918c918c91600160401b820460000b918d916001600160401b0390911690611617565b60405180910390a160048201805460019190600090610b809084906001600160401b0316611578565b82546001600160401b039182166101009390930a92830291909202199091161790555060048201805460ff60481b1916600160481b179055610ce3565b81546001600160a01b0316331415610c3957610bde60008888888888610cee565b1515600114610bec57600080fd5b604083015160011415610c34576040805160018152602081018990527f243b3eab6950158e9beb5e75b173974925f5cb6b3617755a12e835c5b2d010fc910160405180910390a15b610c9e565b610c4860018888888888610cee565b1515600114610c5657600080fd5b604083015160011415610c9e576040805160008152602081018990527f243b3eab6950158e9beb5e75b173974925f5cb6b3617755a12e835c5b2d010fc910160405180910390a15b805460ff16158015610cb757508054610100900460ff16155b15610ce357610cc587610f6f565b1515600114610cd357600080fd5b60048201805460ff60481b191690555b505050505050505050565b60008581526002602090815260408083206003909252822088610e3b576000604051610d1990611066565b604051809103906000f080158015610d35573d6000803e3d6000fd5b50600284015461012087015191925014610d555760009350505050610f65565b60405163b9c6ea8760e01b81526001600160a01b0382169063b9c6ea8790610d87908b908b908b908b90600401611666565b602060405180830381865afa158015610da4573d6000803e3d6000fd5b505050506040513d601f19601f82011682018060405250810190610dc891906114ec565b1515600114610ddd5760009350505050610f65565b50608084015160018281019190915560a085015160028084019190915560c0860151600584015560e086015160068401556101008601516009840155610140860151600b8401558551930192909255805460ff191690559050610f65565b6000604051610e4990611066565b604051809103906000f080158015610e65573d6000803e3d6000fd5b50600384015461012087015191925014610e855760009350505050610f65565b60405163b9c6ea8760e01b81526001600160a01b0382169063b9c6ea8790610eb7908b908b908b908b90600401611666565b602060405180830381865afa158015610ed4573d6000803e3d6000fd5b505050506040513d601f19601f82011682018060405250810190610ef891906114ec565b1515600114610f0d5760009350505050610f65565b50608084015160038281019190915560a0850151600483015560c0850151600783015560e08501516008830155610100850151600a830155610140850151600c8301558451920191909155805461ff00191690555060015b9695505050505050565b600081815260026020908152604080832060039092528220600a8101546009820154148015610fa5575080600c015481600b0154145b8015610fb8575060038101546001820154145b8015610fcb575060048101546002820154145b8015610fde575060078101546005820154145b8015610ff1575060088101546006820154145b1561104f57805461ffff1916610101178155600482015461101e90600160401b900460000b6000196116b7565b6004909201805460ff93909316600160401b0268ff0000000000000000199093169290921790915550600192915050565b5060009392505050565b61132d8061173983390190565b61165480612a6683390190565b60006020828403121561108557600080fd5b5035919050565b634e487b7160e01b600052604160045260246000fd5b604080519081016001600160401b03811182821017156110c4576110c461108c565b60405290565b60405161016081016001600160401b03811182821017156110c4576110c461108c565b600082601f8301126110fe57600080fd5b6111066110a2565b80604084018581111561111857600080fd5b845b8181101561113257803584526020938401930161111a565b509095945050505050565b600082601f83011261114e57600080fd5b6111566110a2565b80608084018581111561116857600080fd5b845b818110156111325761117c87826110ed565b845260209093019260400161116a565b60008060008060006101a08087890312156111a657600080fd5b8635955060206111b889828a016110ed565b95506111c78960608a0161113d565b94506111d68960e08a016110ed565b93508861013f8901126111e857600080fd5b604051608081018181106001600160401b038211171561120a5761120a61108c565b60405291880191808a84111561121f57600080fd5b6101208a015b8481101561123c5780358252908301908301611225565b50508093505050509295509295909350565b600082601f83011261125f57600080fd5b81356001600160401b03808211156112795761127961108c565b604051601f8301601f19908116603f011681019082821181831017156112a1576112a161108c565b816040528381528660208588010111156112ba57600080fd5b836020870160208301376000602085830101528094505050505092915050565b60008060008060008060006102c080898b0312156112f757600080fd5b88356001600160401b038082111561130e57600080fd5b61131a8c838d0161124e565b995060209150818b01358181111561133157600080fd5b61133d8d828e0161124e565b9950505060408a013596506113558b60608c016110ed565b95506113648b60a08c0161113d565b94506113748b6101208c016110ed565b93508a61017f8b011261138657600080fd5b61138e6110ca565b918a0191808c8411156113a057600080fd5b6101608c015b848110156113bd57803583529183019183016113a6565b508094505050505092959891949750929550565b634e487b7160e01b600052601160045260246000fd5b60006001600160401b0380831681811415611404576114046113d1565b6001019392505050565b8060005b6002811015611431578151845260209384019390910190600101611412565b50505050565b806000805b600280821061144b5750611488565b835186845b8381101561146e578251825260209283019290910190600101611450565b50505060409590950194506020929092019160010161143c565b5050505050565b610180810161149e828761140e565b6114ab6040830186611437565b6114b860c083018561140e565b61010082018360005b60048110156114e05781518352602092830192909101906001016114c1565b50505095945050505050565b6000602082840312156114fe57600080fd5b8151801515811461150e57600080fd5b9392505050565b60006001600160401b038083168185168183048111821515161561153b5761153b6113d1565b02949350505050565b60006001600160401b038084168061156c57634e487b7160e01b600052601260045260246000fd5b92169190910692915050565b60006001600160401b0380831681851680830382111561159a5761159a6113d1565b01949350505050565b60005b838110156115be5781810151838201526020016115a6565b838111156114315750506000910152565b600082516115e18184602087016115a3565b9190910192915050565b600081518084526116038160208601602086016115a3565b601f01601f19169290920160200192915050565b60a08152600061162a60a08301886115eb565b828103602084015261163c81886115eb565b60009690960b6040840152505060608101929092526001600160401b031660809091015292915050565b6102608101611675828761140e565b6116826040830186611437565b61168f60c083018561140e565b61010082018360005b600b8110156114e0578151835260209283019290910190600101611698565b60008082810b84820b82811383831382607f04841182821616156116dd576116dd6113d1565b607f19858412828116868305861216156116f9576116f96113d1565b9585129583871685830587121615611713576117136113d1565b84607f058612818816161561172a5761172a6113d1565b50505091029594505050505056fe608060405234801561001057600080fd5b5061130d806100206000396000f3fe608060405234801561001057600080fd5b506004361061002b5760003560e01c80635fe8c13b14610030575b600080fd5b61004361003e366004611142565b610057565b604051901515815260200160405180910390f35b6000610061610f56565b60408051808201825287518152602080890151818301529083528151608080820184528851518285019081528951840151606084015282528351808501855289840180515182525184015181850152828401528483019190915282518084018452875181528783015181840152848401528251600480825260a0820190945260009390929091908301908036833701905050905060005b60048110156101475784816004811061011357610113611220565b602002015182828151811061012a5761012a611220565b60209081029190910101528061013f8161124c565b9150506100f8565b506101528183610170565b61016157600192505050610168565b6000925050505b949350505050565b60007f30644e72e131a029b85045b68181585d2833e84879b9709143e1f593f00000018161019c610367565b9050806080015151855160016101b29190611267565b146101f95760405162461bcd60e51b81526020600482015260126024820152711d995c9a599a595c8b5898590b5a5b9c1d5d60721b60448201526064015b60405180910390fd5b604080518082019091526000808252602082018190525b86518110156102ea578387828151811061022c5761022c611220565b6020026020010151106102815760405162461bcd60e51b815260206004820152601f60248201527f76657269666965722d6774652d736e61726b2d7363616c61722d6669656c640060448201526064016101f0565b6102d6826102d1856080015184600161029a9190611267565b815181106102aa576102aa611220565b60200260200101518a85815181106102c4576102c4611220565b6020026020010151610867565b61090e565b9150806102e28161124c565b915050610210565b5061031381836080015160008151811061030657610306611220565b602002602001015161090e565b905061034961032586600001516109b1565b8660200151846000015185602001518587604001518b604001518960600151610a50565b6103595760019350505050610361565b600093505050505b92915050565b61036f610fa7565b6040805180820182527f02cd5cb4373e29ae4bea1a132238937fd934b825f97a1a91d4cfdbcc414b8c0381527f2e0d384f6ae20c174a99c182b4e5e5c6aa2c4a781b13ae00dc8376b70d3cef096020808301919091529083528151608080820184527f0e9fdea117a8a004837c6f9b5d90ae0bb08e5c3f58262957c93735f53e59ab8d8285019081527f2a2ed6a3a0b76e9efa419cddf5ca45cf33099dd20441fb9b496a5661330f45a5606080850191909152908352845180860186527f047cae3a50a7a7993703ba3fb6430644e6126cd691bb01cd8ff1f2fa5b46fd0281527f0d378416b0312a57173d6ac6e73be43c0fb53a2432d27a76a533ffe8bb5a8198818601528385015285840192909252835180820185527f198e9393920d483a7260bfb731fb5d25f1aa493335a9e71297e485b7aef312c28186019081527f1800deef121f1e76426a00665e5c4479674322d4f75edadd46debd5cd992f6ed828501528152845180860186527f090689d0585ff075ec9e99ad690c3395bc4b313370b38ef355acdadcd122975b81527f12c85ea5db8c6deb4aab71808dcb408fe3d1e7690c43d37b4ce6cc0166fa7daa818601528185015285850152835190810184527f05a178e1fff2f1c29e215a611277c51f56bb79c75658fc06e70c62487c926af08185019081527f0428a8e7e50cd2c44fe39b74411354c97e12242e56ca06fecf1ee492cb33f4a1828401528152835180850185527f25a83299b80778a86d4443881a6a2bbe5f2b9ae2e7277a83b59579f2e3e31ff881527f2f31e848d9e425fd863dc845ff29cf9e1fafa5fe399fe45b3efd7717416e4c228185015281840152908401528151600580825260c08201909352919082015b60408051808201909152600080825260208201528152602001906001900390816105ea57505060808201908152604080518082019091527f114c1efeeb8efe49a9dd1052e052588a01b177b105ed4230064a56620548501e81527f097862cb56d4fccdb931459160ec728ba327c786ecad0133d4fc809506f120dd60208201529051805160009061067d5761067d611220565b602002602001018190525060405180604001604052807f13cb0349ffdb32ddf51e75daeb7cbbc1a9c793c9a204636863a09967df6b52c181526020017f2ae3761c9505e215908d580d8d890b8b9814aa3db26a48c5b950fe89f9e5df7581525081608001516001815181106106f4576106f4611220565b602002602001018190525060405180604001604052807f083ac85ba2d196d8b95604e855f718a09b7ccca0422ba8a314ad1f2d612d5b2581526020017f28201c6ac70f8f4b350000c0a566e7f2220cb25ef0a0749f38702b90daff877d815250816080015160028151811061076b5761076b611220565b602002602001018190525060405180604001604052807f2d07dbd86bf4425fae2bb7216fc503541c250b7eb17cb1904d56db990111047c81526020017f0c1ec15a2ff82ba35f7fab0e259ed32df916cecdc25441987c431cea025012b481525081608001516003815181106107e2576107e2611220565b602002602001018190525060405180604001604052807f073d4e0baa139409378ec113a65ae50ac533cb393cf58c5e75ddb0f993ce281081526020017f0f90da530d037e0fba974df031b9a581a87d28578695d41ac3bbc0b34ac05a39815250816080015160048151811061085957610859611220565b602002602001018190525090565b6040805180820190915260008082526020820152610883610ff8565b835181526020808501519082015260408101839052600060608360808460076107d05a03fa90508080156108b6576108b8565bfe5b50806109065760405162461bcd60e51b815260206004820152601e60248201527f70616972696e675f46696e69736853657475702d6d756c2d6661696c6564000060448201526064016101f0565b505092915050565b604080518082019091526000808252602082015261092a611016565b8351815260208085015181830152835160408301528301516060808301919091526000908360c08460066107d05a03fa90508080156108b65750806109065760405162461bcd60e51b815260206004820152601e60248201527f70616972696e675f46696e69736853657475702d6164642d6661696c6564000060448201526064016101f0565b604080518082019091526000808252602082015281517f30644e72e131a029b85045b68181585d97816a916871ca8d3c208c16d87cfd47901580156109f857506020830151155b15610a185750506040805180820190915260008082526020820152919050565b604051806040016040528084600001518152602001828560200151610a3d919061127f565b610a4790846112a1565b90529392505050565b60408051600480825260a08201909252600091829190816020015b6040805180820190915260008082526020820152815260200190600190039081610a6b57505060408051600480825260a0820190925291925060009190602082015b610ab5611034565b815260200190600190039081610aad5790505090508a82600081518110610ade57610ade611220565b60200260200101819052508882600181518110610afd57610afd611220565b60200260200101819052508682600281518110610b1c57610b1c611220565b60200260200101819052508482600381518110610b3b57610b3b611220565b60200260200101819052508981600081518110610b5a57610b5a611220565b60200260200101819052508781600181518110610b7957610b79611220565b60200260200101819052508581600281518110610b9857610b98611220565b60200260200101819052508381600381518110610bb757610bb7611220565b6020026020010181905250610bcc8282610bdb565b9b9a5050505050505050505050565b60008151835114610c395760405162461bcd60e51b815260206004820152602260248201527f70616972696e675f46696e69736853657475702d6c656e677468732d6661696c604482015261195960f21b60648201526084016101f0565b82516000610c488260066112b8565b905060008167ffffffffffffffff811115610c6557610c65611090565b604051908082528060200260200182016040528015610c8e578160200160208202803683370190505b50905060005b83811015610ec957868181518110610cae57610cae611220565b60200260200101516000015182826006610cc891906112b8565b610cd3906000611267565b81518110610ce357610ce3611220565b602002602001018181525050868181518110610d0157610d01611220565b60200260200101516020015182826006610d1b91906112b8565b610d26906001611267565b81518110610d3657610d36611220565b602002602001018181525050858181518110610d5457610d54611220565b6020908102919091010151515182610d6d8360066112b8565b610d78906002611267565b81518110610d8857610d88611220565b602002602001018181525050858181518110610da657610da6611220565b60209081029190910181015151015182610dc18360066112b8565b610dcc906003611267565b81518110610ddc57610ddc611220565b602002602001018181525050858181518110610dfa57610dfa611220565b602002602001015160200151600060028110610e1857610e18611220565b602002015182610e298360066112b8565b610e34906004611267565b81518110610e4457610e44611220565b602002602001018181525050858181518110610e6257610e62611220565b602002602001015160200151600160028110610e8057610e80611220565b602002015182610e918360066112b8565b610e9c906005611267565b81518110610eac57610eac611220565b602090810291909101015280610ec18161124c565b915050610c94565b50610ed2611054565b6000602082602086026020860160086107d05a03fa90508080156108b6575080610f485760405162461bcd60e51b815260206004820152602160248201527f70616972696e675f46696e69736853657475702d6f70636f64652d6661696c656044820152601960fa1b60648201526084016101f0565b505115159695505050505050565b6040805160a081019091526000606082018181526080830191909152815260208101610f80611034565b8152602001610fa2604051806040016040528060008152602001600081525090565b905290565b6040805160e08101909152600060a0820181815260c0830191909152815260208101610fd1611034565b8152602001610fde611034565b8152602001610feb611034565b8152602001606081525090565b60405180606001604052806003906020820280368337509192915050565b60405180608001604052806004906020820280368337509192915050565b6040518060400160405280611047611072565b8152602001610fa2611072565b60405180602001604052806001906020820280368337509192915050565b60405180604001604052806002906020820280368337509192915050565b634e487b7160e01b600052604160045260246000fd5b6040805190810167ffffffffffffffff811182821017156110c9576110c9611090565b60405290565b6040516080810167ffffffffffffffff811182821017156110c9576110c9611090565b600082601f83011261110357600080fd5b61110b6110a6565b80604084018581111561111d57600080fd5b845b8181101561113757803584526020938401930161111f565b509095945050505050565b60008060008061018080868803121561115a57600080fd5b61116487876110f2565b9450604087605f88011261117757600080fd5b61117f6110a6565b8060c089018a81111561119157600080fd5b838a015b818110156111b6576111a78c826110f2565b84526020909301928401611195565b508197506111c48b826110f2565b9650505050508661011f8701126111da57600080fd5b6111e26110cf565b9086019080888311156111f457600080fd5b61010088015b838110156112125780358352602092830192016111fa565b509598949750929550505050565b634e487b7160e01b600052603260045260246000fd5b634e487b7160e01b600052601160045260246000fd5b600060001982141561126057611260611236565b5060010190565b6000821982111561127a5761127a611236565b500190565b60008261129c57634e487b7160e01b600052601260045260246000fd5b500690565b6000828210156112b3576112b3611236565b500390565b60008160001904831182151516156112d2576112d2611236565b50029056fea2646970667358221220f6b2c792b74dd5e94604af9cc55e4918866c3f2256dec5155279caac6b6f683664736f6c634300080a0033608060405234801561001057600080fd5b50611634806100206000396000f3fe608060405234801561001057600080fd5b506004361061002b5760003560e01c8063b9c6ea8714610030575b600080fd5b61004361003e366004611469565b610057565b604051901515815260200160405180910390f35b600061006161127c565b604080518082018252875181526020808901518183015290835281516080810183528751518184019081528851830151606083015281528251808401845288830180515182525183015181840152818301528382015281518083018352865181528682015181830152838301528151600b8082526101808201909352600092909182016101608036833701905050905060005b600b811015610143578481600b811061010f5761010f611547565b602002015182828151811061012657610126611547565b60209081029190910101528061013b81611573565b9150506100f4565b5061014e818361016c565b61015d57600192505050610164565b6000925050505b949350505050565b60007f30644e72e131a029b85045b68181585d2833e84879b9709143e1f593f000000181610198610363565b9050806080015151855160016101ae919061158e565b146101f55760405162461bcd60e51b81526020600482015260126024820152711d995c9a599a595c8b5898590b5a5b9c1d5d60721b60448201526064015b60405180910390fd5b604080518082019091526000808252602082018190525b86518110156102e6578387828151811061022857610228611547565b60200260200101511061027d5760405162461bcd60e51b815260206004820152601f60248201527f76657269666965722d6774652d736e61726b2d7363616c61722d6669656c640060448201526064016101ec565b6102d2826102cd8560800151846001610296919061158e565b815181106102a6576102a6611547565b60200260200101518a85815181106102c0576102c0611547565b6020026020010151610ba2565b610c49565b9150806102de81611573565b91505061020c565b5061030f81836080015160008151811061030257610302611547565b6020026020010151610c49565b90506103456103218660000151610cec565b8660200151846000015185602001518587604001518b604001518960600151610d8b565b610355576001935050505061035d565b600093505050505b92915050565b61036b6112cd565b6040805180820182527f02cd5cb4373e29ae4bea1a132238937fd934b825f97a1a91d4cfdbcc414b8c0381527f2e0d384f6ae20c174a99c182b4e5e5c6aa2c4a781b13ae00dc8376b70d3cef096020808301919091529083528151608080820184527f0e9fdea117a8a004837c6f9b5d90ae0bb08e5c3f58262957c93735f53e59ab8d8285019081527f2a2ed6a3a0b76e9efa419cddf5ca45cf33099dd20441fb9b496a5661330f45a5606080850191909152908352845180860186527f047cae3a50a7a7993703ba3fb6430644e6126cd691bb01cd8ff1f2fa5b46fd0281527f0d378416b0312a57173d6ac6e73be43c0fb53a2432d27a76a533ffe8bb5a8198818601528385015285840192909252835180820185527f198e9393920d483a7260bfb731fb5d25f1aa493335a9e71297e485b7aef312c28186019081527f1800deef121f1e76426a00665e5c4479674322d4f75edadd46debd5cd992f6ed828501528152845180860186527f090689d0585ff075ec9e99ad690c3395bc4b313370b38ef355acdadcd122975b81527f12c85ea5db8c6deb4aab71808dcb408fe3d1e7690c43d37b4ce6cc0166fa7daa818601528185015285850152835190810184527f1e2391d26b89dcdd7222a7e28115fab53ad64ac3a6a6f18a2422f614fd93381b8185019081527f16d154163bdb4780d8beebfcd5468e91c7eaf4da8f56e215fbbd21ea9aea72d6828401528152835180850185527f13a234dd05496857d78b9617e2667a9894fdc00e856813e08cab53584de1857781527ea311d4caac905285c2c4ee79e595db1d7d41f544a9e57d93d9ba0ef2792f1f8185015281840152908401528151600c8082526101a08201909352919082015b60408051808201909152600080825260208201528152602001906001900390816105e657505060808201908152604080518082019091527f15e8794e088999c1eed32cc82102cfce856e99636f8a5f70eca3503370e6e65681527f29f18ba1292d94a8d9ee6c3704db373fa5cb2fab9bf023620ffd9c6a824ea5a660208201529051805160009061067957610679611547565b602002602001018190525060405180604001604052807e1b1bfedb9047fc03f3e6f40572e134203710bfe6757f74e5db86d93c2f9ef181526020017f02831e1e543710566119f7ee22f43191144cb67e65002d51afa459efceddd88581525081608001516001815181106106ef576106ef611547565b602002602001018190525060405180604001604052807f0957df19501b7c7d0ba55a178892b0b579b4ecbe74f22e6cbc0c33d06e11d30381526020017f2fd80a3b9e0237e40a2a5dfa012a7ae95ecec37adc993ecc2e101320cad0684e815250816080015160028151811061076657610766611547565b602002602001018190525060405180604001604052807f06a866fdbbc92886b667114c1de8ae17bd518424b79b0956176bba499dd4233f81526020017f211ec9d3f368fa5503198c0d9574e2033aa0fd009ce556df595c268fff10c7f781525081608001516003815181106107dd576107dd611547565b602002602001018190525060405180604001604052807f2eed76478cdc0f8f10d177cca54cd801279f9c8ebf863eb16a3ae93c6f15ab6581526020017f175e2efcf4eeb02a954b1f405f1b435114a53ce50e6a15d5de5500ec93e15e4f815250816080015160048151811061085457610854611547565b602002602001018190525060405180604001604052807eb54d2408e965d842c500abd3b59a7654b021dc5bb99c8c6dfb875efcad15a981526020017f173f78ddfa44fccf02e6479f900a2ce4936bd65a115d531bfdb96cac4603ff0781525081608001516005815181106108ca576108ca611547565b602002602001018190525060405180604001604052807f282826a6dd61d85aae4032d61a54cbd4473f38566b436e3ca92991992bbd190d81526020017f25369871c7f5fd0e30197bfc4c2868dab8e8388991227fe9d5ebdf57b98055c3815250816080015160068151811061094157610941611547565b602002602001018190525060405180604001604052807f192f310e50d05e41eab2c98a1faaa5310e17a8e7ef86315e54603ac5f02e34e581526020017f05ae92920f53f46bee032c2f2f26008a273e9ed5e98fe5cdb103d7d3d9c6e73d81525081608001516007815181106109b8576109b8611547565b602002602001018190525060405180604001604052807f21f8ee351baecffce8d7d8c9244ab780f100e06cf5967da2f48642992fb1a3ed81526020017f2b121451aa383a926327751d4aa4db810f66cfe4712cc63317a00097ac78001a8152508160800151600881518110610a2f57610a2f611547565b602002602001018190525060405180604001604052807f0bac3a314f9ed1a7fc01699d71f15ee0e985c6102612394e350d069d904496a381526020017f2f2b0b0694f3bc080a2463cd76b3d0d33c2087abea35a208143ac892c0dad5b18152508160800151600981518110610aa657610aa6611547565b602002602001018190525060405180604001604052807f2ad0e70c150343ec9ba3404f416b5d4aaf1a75fcee26b055e8eb4117973edfbe81526020017f272155632be45ea0a1738939fc272619a68b61b04792b3328555977ef336886f8152508160800151600a81518110610b1d57610b1d611547565b602002602001018190525060405180604001604052807f1a2a784a43bee0cc1549f272024d9c0b937bd3e2133e9825621bc6bc98dcb71e81526020017f24371d3ea7eb8d949e6d2271de881ee3aab5c661fc295aa61efa7944688331a48152508160800151600b81518110610b9457610b94611547565b602002602001018190525090565b6040805180820190915260008082526020820152610bbe61131e565b835181526020808501519082015260408101839052600060608360808460076107d05a03fa9050808015610bf157610bf3565bfe5b5080610c415760405162461bcd60e51b815260206004820152601760248201527f70616972696e675f4d6f76652d6d756c2d6661696c656400000000000000000060448201526064016101ec565b505092915050565b6040805180820190915260008082526020820152610c6561133c565b8351815260208085015181830152835160408301528301516060808301919091526000908360c08460066107d05a03fa9050808015610bf1575080610c415760405162461bcd60e51b815260206004820152601760248201527f70616972696e675f4d6f76652d6164642d6661696c656400000000000000000060448201526064016101ec565b604080518082019091526000808252602082015281517f30644e72e131a029b85045b68181585d97816a916871ca8d3c208c16d87cfd4790158015610d3357506020830151155b15610d535750506040805180820190915260008082526020820152919050565b604051806040016040528084600001518152602001828560200151610d7891906115a6565b610d8290846115c8565b90529392505050565b60408051600480825260a08201909252600091829190816020015b6040805180820190915260008082526020820152815260200190600190039081610da657505060408051600480825260a0820190925291925060009190602082015b610df061135a565b815260200190600190039081610de85790505090508a82600081518110610e1957610e19611547565b60200260200101819052508882600181518110610e3857610e38611547565b60200260200101819052508682600281518110610e5757610e57611547565b60200260200101819052508482600381518110610e7657610e76611547565b60200260200101819052508981600081518110610e9557610e95611547565b60200260200101819052508781600181518110610eb457610eb4611547565b60200260200101819052508581600281518110610ed357610ed3611547565b60200260200101819052508381600381518110610ef257610ef2611547565b6020026020010181905250610f078282610f16565b9b9a5050505050505050505050565b60008151835114610f695760405162461bcd60e51b815260206004820152601b60248201527f70616972696e675f4d6f76652d6c656e677468732d6661696c6564000000000060448201526064016101ec565b82516000610f788260066115df565b905060008167ffffffffffffffff811115610f9557610f956113b6565b604051908082528060200260200182016040528015610fbe578160200160208202803683370190505b50905060005b838110156111f957868181518110610fde57610fde611547565b60200260200101516000015182826006610ff891906115df565b61100390600061158e565b8151811061101357611013611547565b60200260200101818152505086818151811061103157611031611547565b6020026020010151602001518282600661104b91906115df565b61105690600161158e565b8151811061106657611066611547565b60200260200101818152505085818151811061108457611084611547565b602090810291909101015151518261109d8360066115df565b6110a890600261158e565b815181106110b8576110b8611547565b6020026020010181815250508581815181106110d6576110d6611547565b602090810291909101810151510151826110f18360066115df565b6110fc90600361158e565b8151811061110c5761110c611547565b60200260200101818152505085818151811061112a5761112a611547565b60200260200101516020015160006002811061114857611148611547565b6020020151826111598360066115df565b61116490600461158e565b8151811061117457611174611547565b60200260200101818152505085818151811061119257611192611547565b6020026020010151602001516001600281106111b0576111b0611547565b6020020151826111c18360066115df565b6111cc90600561158e565b815181106111dc576111dc611547565b6020908102919091010152806111f181611573565b915050610fc4565b5061120261137a565b6000602082602086026020860160086107d05a03fa9050808015610bf157508061126e5760405162461bcd60e51b815260206004820152601a60248201527f70616972696e675f4d6f76652d6f70636f64652d6661696c656400000000000060448201526064016101ec565b505115159695505050505050565b6040805160a0810190915260006060820181815260808301919091528152602081016112a661135a565b81526020016112c8604051806040016040528060008152602001600081525090565b905290565b6040805160e08101909152600060a0820181815260c08301919091528152602081016112f761135a565b815260200161130461135a565b815260200161131161135a565b8152602001606081525090565b60405180606001604052806003906020820280368337509192915050565b60405180608001604052806004906020820280368337509192915050565b604051806040016040528061136d611398565b81526020016112c8611398565b60405180602001604052806001906020820280368337509192915050565b60405180604001604052806002906020820280368337509192915050565b634e487b7160e01b600052604160045260246000fd5b6040805190810167ffffffffffffffff811182821017156113ef576113ef6113b6565b60405290565b604051610160810167ffffffffffffffff811182821017156113ef576113ef6113b6565b600082601f83011261142a57600080fd5b6114326113cc565b80604084018581111561144457600080fd5b845b8181101561145e578035845260209384019301611446565b509095945050505050565b60008060008061026080868803121561148157600080fd5b61148b8787611419565b9450604087605f88011261149e57600080fd5b6114a66113cc565b8060c089018a8111156114b857600080fd5b838a015b818110156114dd576114ce8c82611419565b845260209093019284016114bc565b508197506114eb8b82611419565b9650505050508661011f87011261150157600080fd5b6115096113f5565b90860190808883111561151b57600080fd5b61010088015b83811015611539578035835260209283019201611521565b509598949750929550505050565b634e487b7160e01b600052603260045260246000fd5b634e487b7160e01b600052601160045260246000fd5b60006000198214156115875761158761155d565b5060010190565b600082198211156115a1576115a161155d565b500190565b6000826115c357634e487b7160e01b600052601260045260246000fd5b500690565b6000828210156115da576115da61155d565b500390565b60008160001904831182151516156115f9576115f961155d565b50029056fea2646970667358221220c98d10cd889ffc4ad4edef0b13189ed25ae4bebc6e119b5eb68757b91bf3ddd964736f6c634300080a0033a2646970667358221220176f249db6d9c26c6131abac156f7e00a9a625cca6f90438848a86ebac5d8bef64736f6c634300080a0033",
  "immutableReferences": {},
  "source": "// SPDX-License-Identifier: MIT\npragma solidity >=0.4.22 <0.9.0;\nimport \"./finishSetupVerifier.sol\";\nimport \"./moveVerifier.sol\";\n\ncontract Junqi {\n  uint64 constant g = 69;\n  uint64 constant p = 999983;\n\n  uint64 last_id = 1;\n  uint64 public n_games = 0;\n  uint64 n_activegames = 0;\n\n\n\n  struct Proof{\n      bool wait_player1_proof; // true wait, false not wait\n      bool wait_player2_proof; //  \n      uint [2] player1_start_square;\n      uint [2] player2_start_square;\n      uint [2] player1_end_square;\n      uint [2] player2_end_square;\n      //uint8 player1_start_square_rank;\n      //uint8 player2_start_square_rank;\n      uint player1_end_square_rank;\n      uint player2_end_square_rank;\n      uint player1_mpc_reuslt;\n      uint player2_mpc_result;\n  }\n  struct Game{\n      address p1;\n      address p2;\n      uint board1_hash;\n      uint board2_hash;\n      uint64 move_event_id;\n      int8 turn; // -1 for p1, 1 for p2\n      uint8 wait_attack_move_proof; // 0 for no waiting, 1 for waiting player 1, 2 for waiting player 2\n      bool active; // two players ready\n      bool p1_finish_setup;\n      bool p2_finish_setup;\n      bool finish_setup;\n      bool exists;\n  }\n\n  event Join(uint index, uint gameID); // index: 0 for player1, 1 for player2\n\n  event FinishSetup(uint index, uint gameID); // index: 0 for player1, 1 for player2\n\n  event GameIDs(address indexed from, uint gameID);\n  event Move(string moveString,string rankString, int8 turn, uint gameID, uint64 id);\n  event Win(int8 player, uint gameID);\n\n  mapping(uint => uint) public gameList;\n  mapping(uint => Game) public games;\n  mapping(uint => Proof) public proofs;\n\n  function declare() external {\n    // pseudorandom gameID\n    uint64 gameID = (last_id * g) % p;\n    while (games[gameID].exists) {\n      gameID = (gameID + 1) % p;\n    }\n    last_id = gameID;\n    \n    Game storage game = games[gameID];\n    //Proof storage proof = proofs[gameID];\n\n    game.p1 = msg.sender;\n    game.board1_hash = 0;\n    game.p1_finish_setup = false;\n    game.turn = -1;\n    game.active = false;\n    game.exists = true;\n    game.finish_setup = false;\n    //game.wait_rankString=0;\n    game.move_event_id = 0;\n\n    gameList[n_games] = gameID;\n    n_games++;\n    \n\n    emit GameIDs(msg.sender, gameID);\n    emit Join(0, gameID);\n  }\n  function join(uint gameID) external {\n    Game storage game = games[gameID];\n    require(game.exists && !game.active);\n    require(msg.sender!=game.p1);\n    game.p2 = msg.sender;\n    game.board2_hash = 0;\n    game.p2_finish_setup = false;\n\n    game.active = true;\n    n_activegames++;\n\n    emit Join(1, gameID);\n  }\n  function finishSetup (uint gameID,uint[2] memory a,uint[2][2] memory b,uint[2] memory c,uint[4] memory input) external {\n    Game storage game = games[gameID];\n    Proof storage proof = proofs[gameID];\n    require(game.exists && game.active&&!game.finish_setup);\n    if(msg.sender == game.p1){ \n     require(game.p1_finish_setup!=true);\n     \n     FinishSetupVerifier verifier = new FinishSetupVerifier();\n     require(verifier.verifyProof(a, b, c, input)==true);\n     \n     game.p1_finish_setup = true;\n     game.board1_hash = input[0];\n     \n     emit FinishSetup(0,gameID);\n    \n    }else if (msg.sender == game.p2){\n     require(game.p2_finish_setup!=true);\n     \n     FinishSetupVerifier verifier = new FinishSetupVerifier();\n     require(verifier.verifyProof(a, b, c, input)==true);\n     \n     game.p2_finish_setup = true;\n     game.board2_hash = input[0];\n     \n     emit FinishSetup(1,gameID);\n    }\n    if(game.p1_finish_setup==true&&game.p2_finish_setup==true){\n     game.finish_setup = true;\n     proof.wait_player1_proof = true;\n     proof.wait_player2_proof = true;\n     game.wait_attack_move_proof = 0;\n    }\n  }\n\n  function moveVerifierAndSavePublicSignal(uint player, uint gameID,\n    uint[2] memory a, uint[2][2] memory b, uint[2] memory c, uint[11] memory input) internal returns (bool){\n    \n    Game storage game = games[gameID];\n    Proof storage proof = proofs[gameID];\n    if(player == 0){\n      // Verify proof\n      MoveVerifier verifier = new MoveVerifier();\n      // Check whether last_hash is equal to gamestate's hash\n      if (input[9]!=game.board1_hash){\n        return false;\n      } \n      if (verifier.verifyProof(a, b, c, input)!=true){\n        return false;\n      }\n      // Save proof public input and output\n      proof.player1_start_square[0] = input[4];\n      proof.player1_start_square[1] = input[5];\n      proof.player1_end_square[0] = input[6];\n      proof.player1_end_square[1] = input[7];\n      // proof.player1_start_square_rank = \n      proof.player1_end_square_rank = input[8];\n      proof.player1_mpc_reuslt = input[10];\n      game.board1_hash = input[0];\n      proof.wait_player1_proof = false;\n      return true;\n    }else{\n      // Verify proof\n      MoveVerifier verifier = new MoveVerifier();\n      // Check whether last_hash is equal to gamestate's hash\n      if (input[9]!=game.board2_hash){\n        return false;\n      }\n      if (verifier.verifyProof(a, b, c, input)!=true){\n        return false;\n      }\n      // Save proof public input and output\n      proof.player2_start_square[0] = input[4];\n      proof.player2_start_square[1] = input[5];\n      proof.player2_end_square[0] = input[6];\n      proof.player2_end_square[1] = input[7];\n      // proof.player2_start_square_rank = \n      proof.player2_end_square_rank = input[8];\n      proof.player2_mpc_result = input[10];\n      game.board2_hash = input[0];\n      proof.wait_player2_proof = false;\n      return true;\n    }\n  }\n\n  function compareTwoProofs(uint gameID) internal returns (bool){\n    Game storage game = games[gameID];\n    Proof storage proof = proofs[gameID];\n    if(\n    proof.player1_end_square_rank == proof.player2_end_square_rank&&\n    proof.player1_mpc_reuslt == proof.player2_mpc_result&&\n    proof.player1_start_square[0] == proof.player2_start_square[0]&&\n    proof.player1_start_square[1] == proof.player2_start_square[1]&&\n    proof.player1_end_square[0] == proof.player2_end_square[0]&&\n    proof.player1_end_square[1] == proof.player2_end_square[1]){\n      \n    proof.wait_player1_proof = true;\n    proof.wait_player2_proof = true;\n    game.turn = game.turn * -1;\n      \n      return true;\n    \n    }else{\n      return false;\n    }\n  }\n\n\n  function move (string memory moveString,string memory rankString, uint gameID,\n                uint[2] memory a, uint[2][2] memory b,\n                uint[2] memory c, uint[11] memory input) external {\n    // rank string = -1 => move\n    // rank string != -1 => attack\n    \n    Game storage game = games[gameID];\n    Proof storage proof = proofs[gameID];\n    require(game.exists && game.active && game.finish_setup);\n    \n    //require((msg.sender == game.p1&&game.turn==-1)||(msg.sender == game.p2&&game.turn==1));\n    if(keccak256(abi.encodePacked(rankString))==keccak256(abi.encodePacked(\"-1\"))){\n      // Normal move\n      if (msg.sender == game.p1){\n        require(moveVerifierAndSavePublicSignal(0, gameID, a, b, c, input)==true);\n      }else{\n        require(moveVerifierAndSavePublicSignal(1, gameID, a, b, c, input)==true);         \n      }\n      if(proof.wait_player2_proof==true||proof.wait_player1_proof==true){\n        emit Move(moveString,rankString, game.turn, gameID,game.move_event_id);\n        game.move_event_id+=1;\n      }else{\n        require(compareTwoProofs(gameID)==true);\n      }\n    }else{\n      // Attack move\n      if (proof.wait_player1_proof==true&&proof.wait_player2_proof==true&&game.wait_attack_move_proof==0){\n        emit Move(moveString, rankString, game.turn, gameID,game.move_event_id);\n        game.move_event_id+=1;\n        game.wait_attack_move_proof = 1;\n      }else{\n        if(msg.sender == game.p1){\n          require(moveVerifierAndSavePublicSignal(0, gameID, a, b, c, input)==true);\n          if(input[2]==1){\n            emit Win(1,gameID);\n          }\n        }else{\n          require(moveVerifierAndSavePublicSignal(1, gameID, a, b, c, input)==true);\n          if(input[2]==1){\n            emit Win(0,gameID);\n          }\n        }\n        if (proof.wait_player1_proof == false&& proof.wait_player2_proof == false){\n          require(compareTwoProofs(gameID)==true);\n          game.wait_attack_move_proof = 0;\n        }\n      }\n    }\n  }\n}",
  "sourcePath": "/home/yxcy/Desktop/pcs-project/smart_contract/contracts/Junqi.sol",
  "compiler": {
    "name": "solc",
    "version": "0.8.10+commit.fc410830.Emscripten.clang"
  },
  "schemaVersion": "3.4.3",
  "updatedAt": "2021-12-10T04:03:00.086Z",
  "networkType": "ethereum",
  "devdoc": {
    "kind": "dev",
    "methods": {},
    "version": 1
  },
  "userdoc": {
    "kind": "user",
    "methods": {},
    "version": 1
  }
}