{
  "contractName": "Junqi",
  "abi": [
    {
      "anonymous": false,
      "inputs": [
        {
          "indexed": false,
          "internalType": "uint256",
          "name": "index",
          "type": "uint256"
        },
        {
          "indexed": false,
          "internalType": "uint256",
          "name": "gameID",
          "type": "uint256"
        }
      ],
      "name": "FinishSetup",
      "type": "event"
    },
    {
      "anonymous": false,
      "inputs": [
        {
          "indexed": true,
          "internalType": "address",
          "name": "from",
          "type": "address"
        },
        {
          "indexed": false,
          "internalType": "uint256",
          "name": "gameID",
          "type": "uint256"
        }
      ],
      "name": "GameIDs",
      "type": "event"
    },
    {
      "anonymous": false,
      "inputs": [
        {
          "indexed": false,
          "internalType": "uint256",
          "name": "index",
          "type": "uint256"
        },
        {
          "indexed": false,
          "internalType": "uint256",
          "name": "gameID",
          "type": "uint256"
        }
      ],
      "name": "Join",
      "type": "event"
    },
    {
      "anonymous": false,
      "inputs": [
        {
          "indexed": false,
          "internalType": "string",
          "name": "moveString",
          "type": "string"
        },
        {
          "indexed": false,
          "internalType": "string",
          "name": "rankString",
          "type": "string"
        },
        {
          "indexed": false,
          "internalType": "int8",
          "name": "turn",
          "type": "int8"
        },
        {
          "indexed": false,
          "internalType": "uint256",
          "name": "gameID",
          "type": "uint256"
        },
        {
          "indexed": false,
          "internalType": "uint64",
          "name": "id",
          "type": "uint64"
        }
      ],
      "name": "Move",
      "type": "event"
    },
    {
      "inputs": [
        {
          "internalType": "uint256",
          "name": "",
          "type": "uint256"
        }
      ],
      "name": "gameList",
      "outputs": [
        {
          "internalType": "uint256",
          "name": "",
          "type": "uint256"
        }
      ],
      "stateMutability": "view",
      "type": "function",
      "constant": true
    },
    {
      "inputs": [
        {
          "internalType": "uint256",
          "name": "",
          "type": "uint256"
        }
      ],
      "name": "games",
      "outputs": [
        {
          "internalType": "address",
          "name": "p1",
          "type": "address"
        },
        {
          "internalType": "address",
          "name": "p2",
          "type": "address"
        },
        {
          "internalType": "uint64",
          "name": "board1_hash",
          "type": "uint64"
        },
        {
          "internalType": "uint64",
          "name": "board2_hash",
          "type": "uint64"
        },
        {
          "internalType": "uint64",
          "name": "move_event_id",
          "type": "uint64"
        },
        {
          "internalType": "int8",
          "name": "turn",
          "type": "int8"
        },
        {
          "internalType": "uint8",
          "name": "wait_rankString",
          "type": "uint8"
        },
        {
          "internalType": "bool",
          "name": "active",
          "type": "bool"
        },
        {
          "internalType": "bool",
          "name": "p1_finish_setup",
          "type": "bool"
        },
        {
          "internalType": "bool",
          "name": "p2_finish_setup",
          "type": "bool"
        },
        {
          "internalType": "bool",
          "name": "finish_setup",
          "type": "bool"
        },
        {
          "internalType": "bool",
          "name": "exists",
          "type": "bool"
        }
      ],
      "stateMutability": "view",
      "type": "function",
      "constant": true
    },
    {
      "inputs": [],
      "name": "n_games",
      "outputs": [
        {
          "internalType": "uint64",
          "name": "",
          "type": "uint64"
        }
      ],
      "stateMutability": "view",
      "type": "function",
      "constant": true
    },
    {
      "inputs": [],
      "name": "declare",
      "outputs": [],
      "stateMutability": "nonpayable",
      "type": "function"
    },
    {
      "inputs": [
        {
          "internalType": "uint256",
          "name": "gameID",
          "type": "uint256"
        }
      ],
      "name": "join",
      "outputs": [],
      "stateMutability": "nonpayable",
      "type": "function"
    },
    {
      "inputs": [
        {
          "internalType": "uint256",
          "name": "gameID",
          "type": "uint256"
        }
      ],
      "name": "finishSetup",
      "outputs": [],
      "stateMutability": "nonpayable",
      "type": "function"
    },
    {
      "inputs": [
        {
          "internalType": "string",
          "name": "moveString",
          "type": "string"
        },
        {
          "internalType": "string",
          "name": "rankString",
          "type": "string"
        },
        {
          "internalType": "uint256",
          "name": "gameID",
          "type": "uint256"
        }
      ],
      "name": "move",
      "outputs": [],
      "stateMutability": "nonpayable",
      "type": "function"
    }
  ],
  "bytecode": "0x608060405260016000806101000a81548167ffffffffffffffff021916908367ffffffffffffffff16021790555060008060086101000a81548167ffffffffffffffff021916908367ffffffffffffffff16021790555060008060106101000a81548167ffffffffffffffff021916908367ffffffffffffffff16021790555034801561008b57600080fd5b50611c748061009b6000396000f3fe608060405234801561001057600080fd5b506004361061007d5760003560e01c80637cb4c8131161005b5780637cb4c813146100e3578063c4bbf16d14610101578063c6cfd08e1461011d578063c8d337441461014d5761007d565b8063049878f314610082578063117a5b901461009e5780634ccde688146100d9575b600080fd5b61009c6004803603810190610097919061125f565b610169565b005b6100b860048036038101906100b3919061125f565b610347565b6040516100d09c9b9a99989796959493929190611343565b60405180910390f35b6100e161047e565b005b6100eb6107d7565b6040516100f891906113fd565b60405180910390f35b61011b6004803603810190610116919061155e565b6107f1565b005b6101376004803603810190610132919061125f565b610f8a565b60405161014491906115f8565b60405180910390f35b6101676004803603810190610162919061125f565b610fa2565b005b60006002600083815260200190815260200160002090508060020160169054906101000a900460ff1680156101ad57508060020160129054906101000a900460ff16155b6101b657600080fd5b8060000160009054906101000a900473ffffffffffffffffffffffffffffffffffffffff1673ffffffffffffffffffffffffffffffffffffffff163373ffffffffffffffffffffffffffffffffffffffff16141561021357600080fd5b338160010160006101000a81548173ffffffffffffffffffffffffffffffffffffffff021916908373ffffffffffffffffffffffffffffffffffffffff16021790555060008160020160006101000a81548167ffffffffffffffff021916908367ffffffffffffffff16021790555060008160020160146101000a81548160ff02191690831515021790555060018160020160126101000a81548160ff0219169083151502179055506000601081819054906101000a900467ffffffffffffffff16809291906102e290611642565b91906101000a81548167ffffffffffffffff021916908367ffffffffffffffff160217905550507f735ef78aed2bd4cfae4d08680b7cb333d4aa561d0287a81d4abbac0b4b64d58960018360405161033b9291906116b8565b60405180910390a15050565b60026020528060005260406000206000915090508060000160009054906101000a900473ffffffffffffffffffffffffffffffffffffffff16908060010160009054906101000a900473ffffffffffffffffffffffffffffffffffffffff16908060010160149054906101000a900467ffffffffffffffff16908060020160009054906101000a900467ffffffffffffffff16908060020160089054906101000a900467ffffffffffffffff16908060020160109054906101000a900460000b908060020160119054906101000a900460ff16908060020160129054906101000a900460ff16908060020160139054906101000a900460ff16908060020160149054906101000a900460ff16908060020160159054906101000a900460ff16908060020160169054906101000a900460ff1690508c565b6000620f422f604560008054906101000a900467ffffffffffffffff166104a591906116e1565b6104af9190611752565b90505b600260008267ffffffffffffffff16815260200190815260200160002060020160169054906101000a900460ff161561050757620f422f6001826104f69190611783565b6105009190611752565b90506104b2565b806000806101000a81548167ffffffffffffffff021916908367ffffffffffffffff1602179055506000600260008367ffffffffffffffff1681526020019081526020016000209050338160000160006101000a81548173ffffffffffffffffffffffffffffffffffffffff021916908373ffffffffffffffffffffffffffffffffffffffff16021790555060008160010160146101000a81548167ffffffffffffffff021916908367ffffffffffffffff16021790555060008160020160136101000a81548160ff0219169083151502179055507fffffffffffffffffffffffffffffffffffffffffffffffffffffffffffffffff8160020160106101000a81548160ff021916908360000b60ff16021790555060008160020160126101000a81548160ff02191690831515021790555060018160020160166101000a81548160ff02191690831515021790555060008160020160156101000a81548160ff02191690831515021790555060008160020160116101000a81548160ff021916908360ff16021790555060008160020160086101000a81548167ffffffffffffffff021916908367ffffffffffffffff1602179055508167ffffffffffffffff16600160008060089054906101000a900467ffffffffffffffff1667ffffffffffffffff168152602001908152602001600020819055506000600881819054906101000a900467ffffffffffffffff168092919061072490611642565b91906101000a81548167ffffffffffffffff021916908367ffffffffffffffff160217905550503373ffffffffffffffffffffffffffffffffffffffff167f0b00eaed7a0d55952ef3dd90aadf03196cf0a192aec8f034c574b5bf7ab4f0ea8360405161079191906117f2565b60405180910390a27f735ef78aed2bd4cfae4d08680b7cb333d4aa561d0287a81d4abbac0b4b64d5896000836040516107cb929190611848565b60405180910390a15050565b600060089054906101000a900467ffffffffffffffff1681565b60006002600083815260200190815260200160002090508060020160169054906101000a900460ff16801561083457508060020160129054906101000a900460ff165b801561084e57508060020160159054906101000a900460ff165b61085757600080fd5b60008160020160119054906101000a900460ff1660ff161415610c2b578060000160009054906101000a900473ffffffffffffffffffffffffffffffffffffffff1673ffffffffffffffffffffffffffffffffffffffff163373ffffffffffffffffffffffffffffffffffffffff1614801561090657507fffffffffffffffffffffffffffffffffffffffffffffffffffffffffffffffff8160020160109054906101000a900460000b60000b145b8061098057508060010160009054906101000a900473ffffffffffffffffffffffffffffffffffffffff1673ffffffffffffffffffffffffffffffffffffffff163373ffffffffffffffffffffffffffffffffffffffff1614801561097f575060018160020160109054906101000a900460000b60000b145b5b61098957600080fd5b604051602001610998906118c8565b60405160208183030381529060405280519060200120836040516020016109bf919061194c565b604051602081830303815290604052805190602001201415610af2577f4c145c32fa51dcba135e9e04ac24023a29e2634d638239348ddb2096b6f8f15b84848360020160109054906101000a900460000b858560020160089054906101000a900467ffffffffffffffff16604051610a3b9594939291906119ad565b60405180910390a160018160020160088282829054906101000a900467ffffffffffffffff16610a6b9190611783565b92506101000a81548167ffffffffffffffff021916908367ffffffffffffffff1602179055507fffffffffffffffffffffffffffffffffffffffffffffffffffffffffffffffff8160020160109054906101000a900460000b610ace9190611a0e565b8160020160106101000a81548160ff021916908360000b60ff160217905550610c26565b7f4c145c32fa51dcba135e9e04ac24023a29e2634d638239348ddb2096b6f8f15b84848360020160109054906101000a900460000b858560020160089054906101000a900467ffffffffffffffff16604051610b529594939291906119ad565b60405180910390a160018160020160088282829054906101000a900467ffffffffffffffff16610b829190611783565b92506101000a81548167ffffffffffffffff021916908367ffffffffffffffff1602179055508060000160009054906101000a900473ffffffffffffffffffffffffffffffffffffffff1673ffffffffffffffffffffffffffffffffffffffff163373ffffffffffffffffffffffffffffffffffffffff1614610c06576001610c09565b60025b8160020160116101000a81548160ff021916908360ff1602179055505b610f84565b60018160020160119054906101000a900460ff1660ff161415610de8578060000160009054906101000a900473ffffffffffffffffffffffffffffffffffffffff1673ffffffffffffffffffffffffffffffffffffffff163373ffffffffffffffffffffffffffffffffffffffff1614610ca457600080fd5b7f4c145c32fa51dcba135e9e04ac24023a29e2634d638239348ddb2096b6f8f15b84847fffffffffffffffffffffffffffffffffffffffffffffffffffffffffffffffff858560020160089054906101000a900467ffffffffffffffff16604051610d13959493929190611b22565b60405180910390a160018160020160088282829054906101000a900467ffffffffffffffff16610d439190611783565b92506101000a81548167ffffffffffffffff021916908367ffffffffffffffff16021790555060008160020160116101000a81548160ff021916908360ff1602179055507fffffffffffffffffffffffffffffffffffffffffffffffffffffffffffffffff8160020160109054906101000a900460000b610dc49190611a0e565b8160020160106101000a81548160ff021916908360000b60ff160217905550610f83565b60028160020160119054906101000a900460ff1660ff161415610f82578060010160009054906101000a900473ffffffffffffffffffffffffffffffffffffffff1673ffffffffffffffffffffffffffffffffffffffff163373ffffffffffffffffffffffffffffffffffffffff1614610e6157600080fd5b7f4c145c32fa51dcba135e9e04ac24023a29e2634d638239348ddb2096b6f8f15b84846001858560020160089054906101000a900467ffffffffffffffff16604051610eb1959493929190611bb4565b60405180910390a160018160020160088282829054906101000a900467ffffffffffffffff16610ee19190611783565b92506101000a81548167ffffffffffffffff021916908367ffffffffffffffff16021790555060008160020160116101000a81548160ff021916908360ff1602179055507fffffffffffffffffffffffffffffffffffffffffffffffffffffffffffffffff8160020160109054906101000a900460000b610f629190611a0e565b8160020160106101000a81548160ff021916908360000b60ff1602179055505b5b5b50505050565b60016020528060005260406000206000915090505481565b60006002600083815260200190815260200160002090508060020160169054906101000a900460ff168015610fe557508060020160129054906101000a900460ff165b801561100057508060020160159054906101000a900460ff16155b61100957600080fd5b8060000160009054906101000a900473ffffffffffffffffffffffffffffffffffffffff1673ffffffffffffffffffffffffffffffffffffffff163373ffffffffffffffffffffffffffffffffffffffff1614156110e057600115158160020160139054906101000a900460ff161515141561108457600080fd5b60018160020160136101000a81548160ff0219169083151502179055507fef1aeead3a48aa63ba839793f58e4a7a038dcba7a2b9c6fd48f586bf2c6ec59c6000836040516110d3929190611c15565b60405180910390a16111b4565b8060010160009054906101000a900473ffffffffffffffffffffffffffffffffffffffff1673ffffffffffffffffffffffffffffffffffffffff163373ffffffffffffffffffffffffffffffffffffffff1614156111b357600115158160020160149054906101000a900460ff161515141561115b57600080fd5b60018160020160146101000a81548160ff0219169083151502179055507fef1aeead3a48aa63ba839793f58e4a7a038dcba7a2b9c6fd48f586bf2c6ec59c6001836040516111aa9291906116b8565b60405180910390a15b5b600115158160020160139054906101000a900460ff1615151480156111ee5750600115158160020160149054906101000a900460ff161515145b156112115760018160020160156101000a81548160ff0219169083151502179055505b5050565b6000604051905090565b600080fd5b600080fd5b6000819050919050565b61123c81611229565b811461124757600080fd5b50565b60008135905061125981611233565b92915050565b6000602082840312156112755761127461121f565b5b60006112838482850161124a565b91505092915050565b600073ffffffffffffffffffffffffffffffffffffffff82169050919050565b60006112b78261128c565b9050919050565b6112c7816112ac565b82525050565b600067ffffffffffffffff82169050919050565b6112ea816112cd565b82525050565b60008160000b9050919050565b611306816112f0565b82525050565b600060ff82169050919050565b6113228161130c565b82525050565b60008115159050919050565b61133d81611328565b82525050565b600061018082019050611359600083018f6112be565b611366602083018e6112be565b611373604083018d6112e1565b611380606083018c6112e1565b61138d608083018b6112e1565b61139a60a083018a6112fd565b6113a760c0830189611319565b6113b460e0830188611334565b6113c2610100830187611334565b6113d0610120830186611334565b6113de610140830185611334565b6113ec610160830184611334565b9d9c50505050505050505050505050565b600060208201905061141260008301846112e1565b92915050565b600080fd5b600080fd5b6000601f19601f8301169050919050565b7f4e487b7100000000000000000000000000000000000000000000000000000000600052604160045260246000fd5b61146b82611422565b810181811067ffffffffffffffff8211171561148a57611489611433565b5b80604052505050565b600061149d611215565b90506114a98282611462565b919050565b600067ffffffffffffffff8211156114c9576114c8611433565b5b6114d282611422565b9050602081019050919050565b82818337600083830152505050565b60006115016114fc846114ae565b611493565b90508281526020810184848401111561151d5761151c61141d565b5b6115288482856114df565b509392505050565b600082601f83011261154557611544611418565b5b81356115558482602086016114ee565b91505092915050565b6000806000606084860312156115775761157661121f565b5b600084013567ffffffffffffffff81111561159557611594611224565b5b6115a186828701611530565b935050602084013567ffffffffffffffff8111156115c2576115c1611224565b5b6115ce86828701611530565b92505060406115df8682870161124a565b9150509250925092565b6115f281611229565b82525050565b600060208201905061160d60008301846115e9565b92915050565b7f4e487b7100000000000000000000000000000000000000000000000000000000600052601160045260246000fd5b600061164d826112cd565b915067ffffffffffffffff82141561166857611667611613565b5b600182019050919050565b6000819050919050565b6000819050919050565b60006116a261169d61169884611673565b61167d565b611229565b9050919050565b6116b281611687565b82525050565b60006040820190506116cd60008301856116a9565b6116da60208301846115e9565b9392505050565b60006116ec826112cd565b91506116f7836112cd565b92508167ffffffffffffffff048311821515161561171857611717611613565b5b828202905092915050565b7f4e487b7100000000000000000000000000000000000000000000000000000000600052601260045260246000fd5b600061175d826112cd565b9150611768836112cd565b92508261177857611777611723565b5b828206905092915050565b600061178e826112cd565b9150611799836112cd565b92508267ffffffffffffffff038211156117b6576117b5611613565b5b828201905092915050565b60006117dc6117d76117d2846112cd565b61167d565b611229565b9050919050565b6117ec816117c1565b82525050565b600060208201905061180760008301846117e3565b92915050565b6000819050919050565b600061183261182d6118288461180d565b61167d565b611229565b9050919050565b61184281611817565b82525050565b600060408201905061185d6000830185611839565b61186a60208301846117e3565b9392505050565b600081905092915050565b7f2d31000000000000000000000000000000000000000000000000000000000000600082015250565b60006118b2600283611871565b91506118bd8261187c565b600282019050919050565b60006118d3826118a5565b9150819050919050565b600081519050919050565b60005b838110156119065780820151818401526020810190506118eb565b83811115611915576000848401525b50505050565b6000611926826118dd565b6119308185611871565b93506119408185602086016118e8565b80840191505092915050565b6000611958828461191b565b915081905092915050565b600082825260208201905092915050565b600061197f826118dd565b6119898185611963565b93506119998185602086016118e8565b6119a281611422565b840191505092915050565b600060a08201905081810360008301526119c78188611974565b905081810360208301526119db8187611974565b90506119ea60408301866112fd565b6119f760608301856115e9565b611a0460808301846112e1565b9695505050505050565b6000611a19826112f0565b9150611a24836112f0565b925082607f0482116000841360008413161615611a4457611a43611613565b5b817fffffffffffffffffffffffffffffffffffffffffffffffffffffffffffffff800583126000841260008413161615611a8157611a80611613565b5b827fffffffffffffffffffffffffffffffffffffffffffffffffffffffffffffff800582126000841360008412161615611abe57611abd611613565b5b82607f0582126000841260008412161615611adc57611adb611613565b5b828202905092915050565b6000819050919050565b6000611b0c611b07611b0284611ae7565b61167d565b6112f0565b9050919050565b611b1c81611af1565b82525050565b600060a0820190508181036000830152611b3c8188611974565b90508181036020830152611b508187611974565b9050611b5f6040830186611b13565b611b6c60608301856115e9565b611b7960808301846112e1565b9695505050505050565b6000611b9e611b99611b9484611673565b61167d565b6112f0565b9050919050565b611bae81611b83565b82525050565b600060a0820190508181036000830152611bce8188611974565b90508181036020830152611be28187611974565b9050611bf16040830186611ba5565b611bfe60608301856115e9565b611c0b60808301846112e1565b9695505050505050565b6000604082019050611c2a6000830185611839565b611c3760208301846115e9565b939250505056fea2646970667358221220d8e6d76a7b816afbb055d8700eaee1d3eb27228ae60b55ae96660e6d1a4e04ef64736f6c634300080a0033",
  "immutableReferences": {},
  "source": "// SPDX-License-Identifier: MIT\npragma solidity >=0.4.22 <0.9.0;\ncontract Junqi {\n  uint64 constant g = 69;\n  uint64 constant p = 999983;\n\n  uint64 last_id = 1;\n  uint64 public n_games = 0;\n  uint64 n_activegames = 0;\n\n  struct Game{\n      address p1;\n      address p2;\n      // int8 [5][12] board;\n      uint64 board1_hash;\n      uint64 board2_hash;\n      uint64 move_event_id;\n      int8 turn; // -1 for p1, 1 for p2\n      uint8 wait_rankString; // 0 for no waiting, 1 for waiting player 1, 2 for waiting player 2\n      bool active; // two players ready\n      bool p1_finish_setup;\n      bool p2_finish_setup;\n      bool finish_setup;\n      bool exists;\n  }\n\n  event Join(uint index, uint gameID); // index: 0 for player1, 1 for player2\n\n  event FinishSetup(uint index, uint gameID); // index: 0 for player1, 1 for player2\n\n  event GameIDs(address indexed from, uint gameID);\n  event Move(string moveString,string rankString, int8 turn, uint gameID, uint64 id);\n\n\n  mapping(uint => uint) public gameList;\n  mapping(uint => Game) public games;\n\n  function declare() external {\n    // pseudorandom gameID\n    uint64 gameID = (last_id * g) % p;\n    while (games[gameID].exists) {\n      gameID = (gameID + 1) % p;\n    }\n    last_id = gameID;\n    \n    Game storage game = games[gameID];\n\n    game.p1 = msg.sender;\n    game.board1_hash = 0;\n    game.p1_finish_setup = false;\n    game.turn = -1;\n    game.active = false;\n    game.exists = true;\n    game.finish_setup = false;\n    game.wait_rankString=0;\n    game.move_event_id = 0;\n\n    gameList[n_games] = gameID;\n    n_games++;\n    \n\n    emit GameIDs(msg.sender, gameID);\n    emit Join(0, gameID);\n  }\n  function join(uint gameID) external {\n    Game storage game = games[gameID];\n    require(game.exists && !game.active);\n    require(msg.sender!=game.p1);\n    game.p2 = msg.sender;\n    game.board2_hash = 0;\n    game.p2_finish_setup = false;\n\n    game.active = true;\n    n_activegames++;\n\n    emit Join(1, gameID);\n  }\n  function finishSetup (uint gameID) external {\n    Game storage game = games[gameID];\n    require(game.exists && game.active&&!game.finish_setup);\n    if(msg.sender == game.p1){\n     require(game.p1_finish_setup!=true);\n     game.p1_finish_setup = true;\n     emit FinishSetup(0,gameID);\n    }else if (msg.sender == game.p2){\n     require(game.p2_finish_setup!=true);\n     game.p2_finish_setup = true;\n     emit FinishSetup(1,gameID);\n    }\n    if(game.p1_finish_setup==true&&game.p2_finish_setup==true){\n     game.finish_setup = true;\n     //emit FinishSetup(2,gameID);\n    }\n    // TODO zksnark verifier\n    \n  }\n  function move (string memory moveString,string memory rankString, uint gameID) external {\n    // rank string = -1 => move\n    // rank string != -1 => attack\n    Game storage game = games[gameID];\n    require(game.exists && game.active && game.finish_setup);\n    if(game.wait_rankString==0){\n      require((msg.sender == game.p1&&game.turn==-1)||(msg.sender == game.p2&&game.turn==1));\n      if(keccak256(abi.encodePacked(rankString))==keccak256(abi.encodePacked(\"-1\"))){\n        //normal\n        emit Move(moveString,rankString, game.turn, gameID,game.move_event_id);\n        game.move_event_id+=1;\n        game.turn = game.turn * -1;\n      }else{\n        //attack\n        emit Move(moveString, rankString, game.turn, gameID,game.move_event_id);\n        game.move_event_id+=1;\n        game.wait_rankString=(msg.sender==game.p1)?2:1;\n      }\n    }else{\n      if(game.wait_rankString==1){\n        require(msg.sender == game.p1);\n        emit Move(moveString, rankString, -1, gameID,game.move_event_id);\n        game.move_event_id+=1;\n        game.wait_rankString=0;\n        game.turn = game.turn * -1;\n      }else if (game.wait_rankString==2){\n        require(msg.sender == game.p2);\n        emit Move(moveString, rankString, 1, gameID,game.move_event_id);\n        game.move_event_id+=1;\n        game.wait_rankString=0;\n        game.turn = game.turn * -1;\n      }\n    }\n  }\n  function checkGameEnd() internal{\n\n  }\n}",
  "sourcePath": "/home/yxcy/Desktop/pcs-project/smart_contract/contracts/Junqi.sol",
  "compiler": {
    "name": "solc",
    "version": "0.8.10+commit.fc410830.Emscripten.clang"
  },
  "schemaVersion": "3.4.3",
  "updatedAt": "2021-11-29T03:29:18.414Z",
  "networkType": "ethereum",
  "devdoc": {
    "kind": "dev",
    "methods": {},
    "version": 1
  },
  "userdoc": {
    "kind": "user",
    "methods": {},
    "version": 1
  }
}