{
  "contractName": "Junqi",
  "abi": [
    {
      "anonymous": false,
      "inputs": [
        {
          "indexed": false,
          "internalType": "uint256",
          "name": "index",
          "type": "uint256"
        },
        {
          "indexed": false,
          "internalType": "uint256",
          "name": "gameID",
          "type": "uint256"
        }
      ],
      "name": "FinishSetup",
      "type": "event"
    },
    {
      "anonymous": false,
      "inputs": [
        {
          "indexed": true,
          "internalType": "address",
          "name": "from",
          "type": "address"
        },
        {
          "indexed": false,
          "internalType": "uint256",
          "name": "gameID",
          "type": "uint256"
        }
      ],
      "name": "GameIDs",
      "type": "event"
    },
    {
      "anonymous": false,
      "inputs": [
        {
          "indexed": false,
          "internalType": "uint256",
          "name": "index",
          "type": "uint256"
        },
        {
          "indexed": false,
          "internalType": "uint256",
          "name": "gameID",
          "type": "uint256"
        }
      ],
      "name": "Join",
      "type": "event"
    },
    {
      "anonymous": false,
      "inputs": [
        {
          "indexed": false,
          "internalType": "string",
          "name": "moveString",
          "type": "string"
        },
        {
          "indexed": false,
          "internalType": "string",
          "name": "rankString",
          "type": "string"
        },
        {
          "indexed": false,
          "internalType": "int8",
          "name": "turn",
          "type": "int8"
        },
        {
          "indexed": false,
          "internalType": "uint256",
          "name": "gameID",
          "type": "uint256"
        },
        {
          "indexed": false,
          "internalType": "uint64",
          "name": "id",
          "type": "uint64"
        }
      ],
      "name": "Move",
      "type": "event"
    },
    {
      "inputs": [
        {
          "internalType": "uint256",
          "name": "",
          "type": "uint256"
        }
      ],
      "name": "gameList",
      "outputs": [
        {
          "internalType": "uint256",
          "name": "",
          "type": "uint256"
        }
      ],
      "stateMutability": "view",
      "type": "function",
      "constant": true
    },
    {
      "inputs": [
        {
          "internalType": "uint256",
          "name": "",
          "type": "uint256"
        }
      ],
      "name": "games",
      "outputs": [
        {
          "internalType": "address",
          "name": "p1",
          "type": "address"
        },
        {
          "internalType": "address",
          "name": "p2",
          "type": "address"
        },
        {
          "internalType": "uint256",
          "name": "board1_hash",
          "type": "uint256"
        },
        {
          "internalType": "uint256",
          "name": "board2_hash",
          "type": "uint256"
        },
        {
          "internalType": "uint64",
          "name": "move_event_id",
          "type": "uint64"
        },
        {
          "internalType": "int8",
          "name": "turn",
          "type": "int8"
        },
        {
          "internalType": "uint8",
          "name": "wait_rankString",
          "type": "uint8"
        },
        {
          "internalType": "bool",
          "name": "active",
          "type": "bool"
        },
        {
          "internalType": "bool",
          "name": "p1_finish_setup",
          "type": "bool"
        },
        {
          "internalType": "bool",
          "name": "p2_finish_setup",
          "type": "bool"
        },
        {
          "internalType": "bool",
          "name": "finish_setup",
          "type": "bool"
        },
        {
          "internalType": "bool",
          "name": "exists",
          "type": "bool"
        }
      ],
      "stateMutability": "view",
      "type": "function",
      "constant": true
    },
    {
      "inputs": [],
      "name": "n_games",
      "outputs": [
        {
          "internalType": "uint64",
          "name": "",
          "type": "uint64"
        }
      ],
      "stateMutability": "view",
      "type": "function",
      "constant": true
    },
    {
      "inputs": [
        {
          "internalType": "uint256",
          "name": "",
          "type": "uint256"
        }
      ],
      "name": "proofs",
      "outputs": [
        {
          "internalType": "bool",
          "name": "wait_player1_proof",
          "type": "bool"
        },
        {
          "internalType": "bool",
          "name": "wait_player2_proof",
          "type": "bool"
        },
        {
          "internalType": "uint8",
          "name": "player1_start_square_rank",
          "type": "uint8"
        },
        {
          "internalType": "uint8",
          "name": "player2_start_square_rank",
          "type": "uint8"
        },
        {
          "internalType": "uint8",
          "name": "player1_end_square_rank",
          "type": "uint8"
        },
        {
          "internalType": "uint8",
          "name": "player2_end_square_rank",
          "type": "uint8"
        }
      ],
      "stateMutability": "view",
      "type": "function",
      "constant": true
    },
    {
      "inputs": [],
      "name": "declare",
      "outputs": [],
      "stateMutability": "nonpayable",
      "type": "function"
    },
    {
      "inputs": [
        {
          "internalType": "uint256",
          "name": "gameID",
          "type": "uint256"
        }
      ],
      "name": "join",
      "outputs": [],
      "stateMutability": "nonpayable",
      "type": "function"
    },
    {
      "inputs": [
        {
          "internalType": "uint256",
          "name": "gameID",
          "type": "uint256"
        },
        {
          "internalType": "uint256[2]",
          "name": "a",
          "type": "uint256[2]"
        },
        {
          "internalType": "uint256[2][2]",
          "name": "b",
          "type": "uint256[2][2]"
        },
        {
          "internalType": "uint256[2]",
          "name": "c",
          "type": "uint256[2]"
        },
        {
          "internalType": "uint256[4]",
          "name": "input",
          "type": "uint256[4]"
        }
      ],
      "name": "finishSetup",
      "outputs": [],
      "stateMutability": "nonpayable",
      "type": "function"
    },
    {
      "inputs": [
        {
          "internalType": "string",
          "name": "moveString",
          "type": "string"
        },
        {
          "internalType": "string",
          "name": "rankString",
          "type": "string"
        },
        {
          "internalType": "uint256",
          "name": "gameID",
          "type": "uint256"
        }
      ],
      "name": "move",
      "outputs": [],
      "stateMutability": "nonpayable",
      "type": "function"
    },
    {
      "inputs": [
        {
          "internalType": "uint256",
          "name": "gameID",
          "type": "uint256"
        }
      ],
      "name": "proveMove",
      "outputs": [],
      "stateMutability": "nonpayable",
      "type": "function"
    }
  ],
  "bytecode": "0x608060405260016000806101000a81548167ffffffffffffffff021916908367ffffffffffffffff16021790555060008060086101000a81548167ffffffffffffffff021916908367ffffffffffffffff16021790555060008060106101000a81548167ffffffffffffffff021916908367ffffffffffffffff16021790555034801561008b57600080fd5b5061428f8061009b6000396000f3fe608060405234801561001057600080fd5b50600436106100935760003560e01c80634ccde688116100665780634ccde688146101275780637cb4c813146101315780639ddaf5aa1461014f578063c4bbf16d14610184578063c6cfd08e146101a057610093565b8063049878f3146100985780630b4d90f9146100b4578063117a5b90146100d05780634cc882371461010b575b600080fd5b6100b260048036038101906100ad919061168d565b6101d0565b005b6100ce60048036038101906100c9919061168d565b61038c565b005b6100ea60048036038101906100e5919061168d565b6105ee565b6040516101029c9b9a99989796959493929190611780565b60405180910390f35b61012560048036038101906101209190611ae3565b6106fd565b005b61012f610b32565b005b610139610e69565b6040516101469190611b60565b60405180910390f35b6101696004803603810190610164919061168d565b610e83565b60405161017b96959493929190611b7b565b60405180910390f35b61019e60048036038101906101999190611c91565b610f0d565b005b6101ba60048036038101906101b5919061168d565b61161e565b6040516101c79190611d1c565b60405180910390f35b600060026000838152602001908152602001600020905080600401600e9054906101000a900460ff168015610214575080600401600a9054906101000a900460ff16155b61021d57600080fd5b8060000160009054906101000a900473ffffffffffffffffffffffffffffffffffffffff1673ffffffffffffffffffffffffffffffffffffffff163373ffffffffffffffffffffffffffffffffffffffff16141561027a57600080fd5b338160010160006101000a81548173ffffffffffffffffffffffffffffffffffffffff021916908373ffffffffffffffffffffffffffffffffffffffff16021790555060008160030181905550600081600401600c6101000a81548160ff021916908315150217905550600181600401600a6101000a81548160ff0219169083151502179055506000601081819054906101000a900467ffffffffffffffff168092919061032790611d66565b91906101000a81548167ffffffffffffffff021916908367ffffffffffffffff160217905550507f735ef78aed2bd4cfae4d08680b7cb333d4aa561d0287a81d4abbac0b4b64d589600183604051610380929190611ddc565b60405180910390a15050565b60006002600083815260200190815260200160002090506000600360008481526020019081526020016000209050600115158160000160009054906101000a900460ff16151514801561042e57508160000160009054906101000a900473ffffffffffffffffffffffffffffffffffffffff1673ffffffffffffffffffffffffffffffffffffffff163373ffffffffffffffffffffffffffffffffffffffff16145b806104a95750600115158160000160019054906101000a900460ff1615151480156104a857508160010160009054906101000a900473ffffffffffffffffffffffffffffffffffffffff1673ffffffffffffffffffffffffffffffffffffffff163373ffffffffffffffffffffffffffffffffffffffff16145b5b6104b257600080fd5b8160000160009054906101000a900473ffffffffffffffffffffffffffffffffffffffff1673ffffffffffffffffffffffffffffffffffffffff163373ffffffffffffffffffffffffffffffffffffffff16141561052c5760008160000160006101000a81548160ff02191690831515021790555061054a565b60008160000160016101000a81548160ff0219169083151502179055505b6000801561056d5750600015158160000160019054906101000a900460ff161515145b8160000160006101000a81548160ff0219169083151502179055156105e9577fffffffffffffffffffffffffffffffffffffffffffffffffffffffffffffffff8260040160089054906101000a900460000b6105c99190611e05565b8260040160086101000a81548160ff021916908360000b60ff1602179055505b505050565b60026020528060005260406000206000915090508060000160009054906101000a900473ffffffffffffffffffffffffffffffffffffffff16908060010160009054906101000a900473ffffffffffffffffffffffffffffffffffffffff16908060020154908060030154908060040160009054906101000a900467ffffffffffffffff16908060040160089054906101000a900460000b908060040160099054906101000a900460ff169080600401600a9054906101000a900460ff169080600401600b9054906101000a900460ff169080600401600c9054906101000a900460ff169080600401600d9054906101000a900460ff169080600401600e9054906101000a900460ff1690508c565b600060026000878152602001908152602001600020905080600401600e9054906101000a900460ff168015610740575080600401600a9054906101000a900460ff165b801561075b575080600401600d9054906101000a900460ff16155b61076457600080fd5b8060000160009054906101000a900473ffffffffffffffffffffffffffffffffffffffff1673ffffffffffffffffffffffffffffffffffffffff163373ffffffffffffffffffffffffffffffffffffffff16141561091a576001151581600401600b9054906101000a900460ff16151514156107df57600080fd5b60006040516107ed90611636565b604051809103906000f080158015610809573d6000803e3d6000fd5b509050600115158173ffffffffffffffffffffffffffffffffffffffff16635fe8c13b888888886040518563ffffffff1660e01b815260040161084f949392919061210b565b602060405180830381865afa15801561086c573d6000803e3d6000fd5b505050506040513d601f19601f82011682018060405250810190610890919061217e565b15151461089c57600080fd5b600182600401600b6101000a81548160ff021916908315150217905550826000600481106108cd576108cc6121ab565b5b602002015182600201819055507fef1aeead3a48aa63ba839793f58e4a7a038dcba7a2b9c6fd48f586bf2c6ec59c60008860405161090c929190612215565b60405180910390a150610acd565b8060010160009054906101000a900473ffffffffffffffffffffffffffffffffffffffff1673ffffffffffffffffffffffffffffffffffffffff163373ffffffffffffffffffffffffffffffffffffffff161415610acc576001151581600401600c9054906101000a900460ff161515141561099557600080fd5b60006040516109a390611636565b604051809103906000f0801580156109bf573d6000803e3d6000fd5b509050600115158173ffffffffffffffffffffffffffffffffffffffff16635fe8c13b888888886040518563ffffffff1660e01b8152600401610a05949392919061210b565b602060405180830381865afa158015610a22573d6000803e3d6000fd5b505050506040513d601f19601f82011682018060405250810190610a46919061217e565b151514610a5257600080fd5b600182600401600c6101000a81548160ff02191690831515021790555082600060048110610a8357610a826121ab565b5b602002015182600301819055507fef1aeead3a48aa63ba839793f58e4a7a038dcba7a2b9c6fd48f586bf2c6ec59c600188604051610ac2929190611ddc565b60405180910390a1505b5b6001151581600401600b9054906101000a900460ff161515148015610b0757506001151581600401600c9054906101000a900460ff161515145b15610b2a57600181600401600d6101000a81548160ff0219169083151502179055505b505050505050565b6000620f422f604560008054906101000a900467ffffffffffffffff16610b59919061223e565b610b6391906122af565b90505b600260008267ffffffffffffffff168152602001908152602001600020600401600e9054906101000a900460ff1615610bbb57620f422f600182610baa91906122e0565b610bb491906122af565b9050610b66565b806000806101000a81548167ffffffffffffffff021916908367ffffffffffffffff1602179055506000600260008367ffffffffffffffff1681526020019081526020016000209050338160000160006101000a81548173ffffffffffffffffffffffffffffffffffffffff021916908373ffffffffffffffffffffffffffffffffffffffff16021790555060008160020181905550600081600401600b6101000a81548160ff0219169083151502179055507fffffffffffffffffffffffffffffffffffffffffffffffffffffffffffffffff8160040160086101000a81548160ff021916908360000b60ff160217905550600081600401600a6101000a81548160ff021916908315150217905550600181600401600e6101000a81548160ff021916908315150217905550600081600401600d6101000a81548160ff02191690831515021790555060008160040160096101000a81548160ff021916908360ff16021790555060008160040160006101000a81548167ffffffffffffffff021916908367ffffffffffffffff1602179055508167ffffffffffffffff16600160008060089054906101000a900467ffffffffffffffff1667ffffffffffffffff168152602001908152602001600020819055506000600881819054906101000a900467ffffffffffffffff1680929190610db690611d66565b91906101000a81548167ffffffffffffffff021916908367ffffffffffffffff160217905550503373ffffffffffffffffffffffffffffffffffffffff167f0b00eaed7a0d55952ef3dd90aadf03196cf0a192aec8f034c574b5bf7ab4f0ea83604051610e23919061234f565b60405180910390a27f735ef78aed2bd4cfae4d08680b7cb333d4aa561d0287a81d4abbac0b4b64d589600083604051610e5d92919061236a565b60405180910390a15050565b600060089054906101000a900467ffffffffffffffff1681565b60036020528060005260406000206000915090508060000160009054906101000a900460ff16908060000160019054906101000a900460ff16908060050160009054906101000a900460ff16908060050160019054906101000a900460ff16908060050160029054906101000a900460ff16908060050160039054906101000a900460ff16905086565b6000600260008381526020019081526020016000209050600060036000848152602001908152602001600020905081600401600e9054906101000a900460ff168015610f67575081600401600a9054906101000a900460ff165b8015610f81575081600401600d9054906101000a900460ff165b610f8a57600080fd5b60008260040160099054906101000a900460ff1660ff161415611376578160000160009054906101000a900473ffffffffffffffffffffffffffffffffffffffff1673ffffffffffffffffffffffffffffffffffffffff163373ffffffffffffffffffffffffffffffffffffffff1614801561103957507fffffffffffffffffffffffffffffffffffffffffffffffffffffffffffffffff8260040160089054906101000a900460000b60000b145b806110b357508160010160009054906101000a900473ffffffffffffffffffffffffffffffffffffffff1673ffffffffffffffffffffffffffffffffffffffff163373ffffffffffffffffffffffffffffffffffffffff161480156110b2575060018260040160089054906101000a900460000b60000b145b5b6110bc57600080fd5b6040516020016110cb906123ea565b60405160208183030381529060405280519060200120846040516020016110f2919061246e565b604051602081830303815290604052805190602001201415611203577f4c145c32fa51dcba135e9e04ac24023a29e2634d638239348ddb2096b6f8f15b85858460040160089054906101000a900460000b868660040160009054906101000a900467ffffffffffffffff1660405161116e9594939291906124cf565b60405180910390a160018260040160008282829054906101000a900467ffffffffffffffff1661119e91906122e0565b92506101000a81548167ffffffffffffffff021916908367ffffffffffffffff16021790555060018160000160006101000a81548160ff02191690831515021790555060018160000160016101000a81548160ff021916908315150217905550611371565b7f4c145c32fa51dcba135e9e04ac24023a29e2634d638239348ddb2096b6f8f15b85858460040160089054906101000a900460000b868660040160009054906101000a900467ffffffffffffffff166040516112639594939291906124cf565b60405180910390a160018260040160008282829054906101000a900467ffffffffffffffff1661129391906122e0565b92506101000a81548167ffffffffffffffff021916908367ffffffffffffffff1602179055508160000160009054906101000a900473ffffffffffffffffffffffffffffffffffffffff1673ffffffffffffffffffffffffffffffffffffffff163373ffffffffffffffffffffffffffffffffffffffff161461131757600161131a565b60025b8260040160096101000a81548160ff021916908360ff16021790555060018160000160006101000a81548160ff02191690831515021790555060018160000160016101000a81548160ff0219169083151502179055505b611617565b60018260040160099054906101000a900460ff1660ff1614156114d7578160000160009054906101000a900473ffffffffffffffffffffffffffffffffffffffff1673ffffffffffffffffffffffffffffffffffffffff163373ffffffffffffffffffffffffffffffffffffffff16146113ef57600080fd5b7f4c145c32fa51dcba135e9e04ac24023a29e2634d638239348ddb2096b6f8f15b85857fffffffffffffffffffffffffffffffffffffffffffffffffffffffffffffffff868660040160009054906101000a900467ffffffffffffffff1660405161145e95949392919061256b565b60405180910390a160018260040160008282829054906101000a900467ffffffffffffffff1661148e91906122e0565b92506101000a81548167ffffffffffffffff021916908367ffffffffffffffff16021790555060008260040160096101000a81548160ff021916908360ff160217905550611616565b60028260040160099054906101000a900460ff1660ff161415611615578160010160009054906101000a900473ffffffffffffffffffffffffffffffffffffffff1673ffffffffffffffffffffffffffffffffffffffff163373ffffffffffffffffffffffffffffffffffffffff161461155057600080fd5b7f4c145c32fa51dcba135e9e04ac24023a29e2634d638239348ddb2096b6f8f15b85856001868660040160009054906101000a900467ffffffffffffffff166040516115a09594939291906125fd565b60405180910390a160018260040160008282829054906101000a900467ffffffffffffffff166115d091906122e0565b92506101000a81548167ffffffffffffffff021916908367ffffffffffffffff16021790555060008260040160096101000a81548160ff021916908360ff1602179055505b5b5b5050505050565b60016020528060005260406000206000915090505481565b611bfb8061265f83390190565b6000604051905090565b600080fd5b600080fd5b6000819050919050565b61166a81611657565b811461167557600080fd5b50565b60008135905061168781611661565b92915050565b6000602082840312156116a3576116a261164d565b5b60006116b184828501611678565b91505092915050565b600073ffffffffffffffffffffffffffffffffffffffff82169050919050565b60006116e5826116ba565b9050919050565b6116f5816116da565b82525050565b61170481611657565b82525050565b600067ffffffffffffffff82169050919050565b6117278161170a565b82525050565b60008160000b9050919050565b6117438161172d565b82525050565b600060ff82169050919050565b61175f81611749565b82525050565b60008115159050919050565b61177a81611765565b82525050565b600061018082019050611796600083018f6116ec565b6117a3602083018e6116ec565b6117b0604083018d6116fb565b6117bd606083018c6116fb565b6117ca608083018b61171e565b6117d760a083018a61173a565b6117e460c0830189611756565b6117f160e0830188611771565b6117ff610100830187611771565b61180d610120830186611771565b61181b610140830185611771565b611829610160830184611771565b9d9c50505050505050505050505050565b600080fd5b6000601f19601f8301169050919050565b7f4e487b7100000000000000000000000000000000000000000000000000000000600052604160045260246000fd5b6118888261183f565b810181811067ffffffffffffffff821117156118a7576118a6611850565b5b80604052505050565b60006118ba611643565b90506118c6828261187f565b919050565b600067ffffffffffffffff8211156118e6576118e5611850565b5b602082029050919050565b600080fd5b6000611909611904846118cb565b6118b0565b90508060208402830185811115611923576119226118f1565b5b835b8181101561194c57806119388882611678565b845260208401935050602081019050611925565b5050509392505050565b600082601f83011261196b5761196a61183a565b5b60026119788482856118f6565b91505092915050565b600067ffffffffffffffff82111561199c5761199b611850565b5b602082029050919050565b60006119ba6119b584611981565b6118b0565b905080604084028301858111156119d4576119d36118f1565b5b835b818110156119fd57806119e98882611956565b8452602084019350506040810190506119d6565b5050509392505050565b600082601f830112611a1c57611a1b61183a565b5b6002611a298482856119a7565b91505092915050565b600067ffffffffffffffff821115611a4d57611a4c611850565b5b602082029050919050565b6000611a6b611a6684611a32565b6118b0565b90508060208402830185811115611a8557611a846118f1565b5b835b81811015611aae5780611a9a8882611678565b845260208401935050602081019050611a87565b5050509392505050565b600082601f830112611acd57611acc61183a565b5b6004611ada848285611a58565b91505092915050565b60008060008060006101a08688031215611b0057611aff61164d565b5b6000611b0e88828901611678565b9550506020611b1f88828901611956565b9450506060611b3088828901611a07565b93505060e0611b4188828901611956565b925050610120611b5388828901611ab8565b9150509295509295909350565b6000602082019050611b75600083018461171e565b92915050565b600060c082019050611b906000830189611771565b611b9d6020830188611771565b611baa6040830187611756565b611bb76060830186611756565b611bc46080830185611756565b611bd160a0830184611756565b979650505050505050565b600080fd5b600067ffffffffffffffff821115611bfc57611bfb611850565b5b611c058261183f565b9050602081019050919050565b82818337600083830152505050565b6000611c34611c2f84611be1565b6118b0565b905082815260208101848484011115611c5057611c4f611bdc565b5b611c5b848285611c12565b509392505050565b600082601f830112611c7857611c7761183a565b5b8135611c88848260208601611c21565b91505092915050565b600080600060608486031215611caa57611ca961164d565b5b600084013567ffffffffffffffff811115611cc857611cc7611652565b5b611cd486828701611c63565b935050602084013567ffffffffffffffff811115611cf557611cf4611652565b5b611d0186828701611c63565b9250506040611d1286828701611678565b9150509250925092565b6000602082019050611d3160008301846116fb565b92915050565b7f4e487b7100000000000000000000000000000000000000000000000000000000600052601160045260246000fd5b6000611d718261170a565b915067ffffffffffffffff821415611d8c57611d8b611d37565b5b600182019050919050565b6000819050919050565b6000819050919050565b6000611dc6611dc1611dbc84611d97565b611da1565b611657565b9050919050565b611dd681611dab565b82525050565b6000604082019050611df16000830185611dcd565b611dfe60208301846116fb565b9392505050565b6000611e108261172d565b9150611e1b8361172d565b925082607f0482116000841360008413161615611e3b57611e3a611d37565b5b817fffffffffffffffffffffffffffffffffffffffffffffffffffffffffffffff800583126000841260008413161615611e7857611e77611d37565b5b827fffffffffffffffffffffffffffffffffffffffffffffffffffffffffffffff800582126000841360008412161615611eb557611eb4611d37565b5b82607f0582126000841260008412161615611ed357611ed2611d37565b5b828202905092915050565b600060029050919050565b600081905092915050565b6000819050919050565b611f0781611657565b82525050565b6000611f198383611efe565b60208301905092915050565b6000602082019050919050565b611f3b81611ede565b611f458184611ee9565b9250611f5082611ef4565b8060005b83811015611f81578151611f688782611f0d565b9650611f7383611f25565b925050600181019050611f54565b505050505050565b600060029050919050565b600081905092915050565b6000819050919050565b600081905092915050565b611fbd81611ede565b611fc78184611fa9565b9250611fd282611ef4565b8060005b83811015612003578151611fea8782611f0d565b9650611ff583611f25565b925050600181019050611fd6565b505050505050565b60006120178383611fb4565b60408301905092915050565b6000602082019050919050565b61203981611f89565b6120438184611f94565b925061204e82611f9f565b8060005b8381101561207f578151612066878261200b565b965061207183612023565b925050600181019050612052565b505050505050565b600060049050919050565b600081905092915050565b6000819050919050565b6000602082019050919050565b6120bd81612087565b6120c78184612092565b92506120d28261209d565b8060005b838110156121035781516120ea8782611f0d565b96506120f5836120a7565b9250506001810190506120d6565b505050505050565b6000610180820190506121216000830187611f32565b61212e6040830186612030565b61213b60c0830185611f32565b6121496101008301846120b4565b95945050505050565b61215b81611765565b811461216657600080fd5b50565b60008151905061217881612152565b92915050565b6000602082840312156121945761219361164d565b5b60006121a284828501612169565b91505092915050565b7f4e487b7100000000000000000000000000000000000000000000000000000000600052603260045260246000fd5b6000819050919050565b60006121ff6121fa6121f5846121da565b611da1565b611657565b9050919050565b61220f816121e4565b82525050565b600060408201905061222a6000830185612206565b61223760208301846116fb565b9392505050565b60006122498261170a565b91506122548361170a565b92508167ffffffffffffffff048311821515161561227557612274611d37565b5b828202905092915050565b7f4e487b7100000000000000000000000000000000000000000000000000000000600052601260045260246000fd5b60006122ba8261170a565b91506122c58361170a565b9250826122d5576122d4612280565b5b828206905092915050565b60006122eb8261170a565b91506122f68361170a565b92508267ffffffffffffffff0382111561231357612312611d37565b5b828201905092915050565b600061233961233461232f8461170a565b611da1565b611657565b9050919050565b6123498161231e565b82525050565b60006020820190506123646000830184612340565b92915050565b600060408201905061237f6000830185612206565b61238c6020830184612340565b9392505050565b600081905092915050565b7f2d31000000000000000000000000000000000000000000000000000000000000600082015250565b60006123d4600283612393565b91506123df8261239e565b600282019050919050565b60006123f5826123c7565b9150819050919050565b600081519050919050565b60005b8381101561242857808201518184015260208101905061240d565b83811115612437576000848401525b50505050565b6000612448826123ff565b6124528185612393565b935061246281856020860161240a565b80840191505092915050565b600061247a828461243d565b915081905092915050565b600082825260208201905092915050565b60006124a1826123ff565b6124ab8185612485565b93506124bb81856020860161240a565b6124c48161183f565b840191505092915050565b600060a08201905081810360008301526124e98188612496565b905081810360208301526124fd8187612496565b905061250c604083018661173a565b61251960608301856116fb565b612526608083018461171e565b9695505050505050565b6000819050919050565b600061255561255061254b84612530565b611da1565b61172d565b9050919050565b6125658161253a565b82525050565b600060a08201905081810360008301526125858188612496565b905081810360208301526125998187612496565b90506125a8604083018661255c565b6125b560608301856116fb565b6125c2608083018461171e565b9695505050505050565b60006125e76125e26125dd84611d97565b611da1565b61172d565b9050919050565b6125f7816125cc565b82525050565b600060a08201905081810360008301526126178188612496565b9050818103602083015261262b8187612496565b905061263a60408301866125ee565b61264760608301856116fb565b612654608083018461171e565b969550505050505056fe608060405234801561001057600080fd5b50611bdb806100206000396000f3fe608060405234801561001057600080fd5b506004361061002b5760003560e01c80635fe8c13b14610030575b600080fd5b61004a60048036038101906100459190611682565b610060565b6040516100579190611706565b60405180910390f35b600061006a611252565b60405180604001604052808760006002811061008957610088611721565b5b60200201518152602001876001600281106100a7576100a6611721565b5b6020020151815250816000018190525060405180604001604052806040518060400160405280886000600281106100e1576100e0611721565b5b60200201516000600281106100f9576100f8611721565b5b602002015181526020018860006002811061011757610116611721565b5b602002015160016002811061012f5761012e611721565b5b6020020151815250815260200160405180604001604052808860016002811061015b5761015a611721565b5b602002015160006002811061017357610172611721565b5b602002015181526020018860016002811061019157610190611721565b5b60200201516001600281106101a9576101a8611721565b5b602002015181525081525081602001819052506040518060400160405280856000600281106101db576101da611721565b5b60200201518152602001856001600281106101f9576101f8611721565b5b602002015181525081604001819052506000600467ffffffffffffffff811115610226576102256113b9565b5b6040519080825280602002602001820160405280156102545781602001602082028036833780820191505090505b50905060005b60048110156102ad5784816004811061027657610275611721565b5b602002015182828151811061028e5761028d611721565b5b60200260200101818152505080806102a59061177f565b91505061025a565b5060006102ba82846102da565b14156102cb576001925050506102d2565b6000925050505b949350505050565b6000807f30644e72e131a029b85045b68181585d2833e84879b9709143e1f593f00000019050600061030a6104cd565b90508060800151516001865161032091906117c8565b14610360576040517f08c379a00000000000000000000000000000000000000000000000000000000081526004016103579061187b565b60405180910390fd5b60006040518060400160405280600081526020016000815250905060005b865181101561044f578387828151811061039b5761039a611721565b5b6020026020010151106103e3576040517f08c379a00000000000000000000000000000000000000000000000000000000081526004016103da906118e7565b60405180910390fd5b61043a8261043585608001516001856103fc91906117c8565b8151811061040d5761040c611721565b5b60200260200101518a858151811061042857610427611721565b5b6020026020010151610a39565b610b16565b915080806104479061177f565b91505061037e565b5061047981836080015160008151811061046c5761046b611721565b5b6020026020010151610b16565b90506104af61048b8660000151610c19565b8660200151846000015185602001518587604001518b604001518960600151610cbe565b6104bf57600193505050506104c7565b600093505050505b92915050565b6104d5611285565b60405180604001604052807f02cd5cb4373e29ae4bea1a132238937fd934b825f97a1a91d4cfdbcc414b8c0381526020017f2e0d384f6ae20c174a99c182b4e5e5c6aa2c4a781b13ae00dc8376b70d3cef098152508160000181905250604051806040016040528060405180604001604052807f0e9fdea117a8a004837c6f9b5d90ae0bb08e5c3f58262957c93735f53e59ab8d81526020017f2a2ed6a3a0b76e9efa419cddf5ca45cf33099dd20441fb9b496a5661330f45a5815250815260200160405180604001604052807f047cae3a50a7a7993703ba3fb6430644e6126cd691bb01cd8ff1f2fa5b46fd0281526020017f0d378416b0312a57173d6ac6e73be43c0fb53a2432d27a76a533ffe8bb5a81988152508152508160200181905250604051806040016040528060405180604001604052807f198e9393920d483a7260bfb731fb5d25f1aa493335a9e71297e485b7aef312c281526020017f1800deef121f1e76426a00665e5c4479674322d4f75edadd46debd5cd992f6ed815250815260200160405180604001604052807f090689d0585ff075ec9e99ad690c3395bc4b313370b38ef355acdadcd122975b81526020017f12c85ea5db8c6deb4aab71808dcb408fe3d1e7690c43d37b4ce6cc0166fa7daa8152508152508160400181905250604051806040016040528060405180604001604052807f05a178e1fff2f1c29e215a611277c51f56bb79c75658fc06e70c62487c926af081526020017f0428a8e7e50cd2c44fe39b74411354c97e12242e56ca06fecf1ee492cb33f4a1815250815260200160405180604001604052807f25a83299b80778a86d4443881a6a2bbe5f2b9ae2e7277a83b59579f2e3e31ff881526020017f2f31e848d9e425fd863dc845ff29cf9e1fafa5fe399fe45b3efd7717416e4c228152508152508160600181905250600567ffffffffffffffff81111561079c5761079b6113b9565b5b6040519080825280602002602001820160405280156107d557816020015b6107c26112cc565b8152602001906001900390816107ba5790505b50816080018190525060405180604001604052807f114c1efeeb8efe49a9dd1052e052588a01b177b105ed4230064a56620548501e81526020017f097862cb56d4fccdb931459160ec728ba327c786ecad0133d4fc809506f120dd815250816080015160008151811061084b5761084a611721565b5b602002602001018190525060405180604001604052807f13cb0349ffdb32ddf51e75daeb7cbbc1a9c793c9a204636863a09967df6b52c181526020017f2ae3761c9505e215908d580d8d890b8b9814aa3db26a48c5b950fe89f9e5df7581525081608001516001815181106108c3576108c2611721565b5b602002602001018190525060405180604001604052807f083ac85ba2d196d8b95604e855f718a09b7ccca0422ba8a314ad1f2d612d5b2581526020017f28201c6ac70f8f4b350000c0a566e7f2220cb25ef0a0749f38702b90daff877d815250816080015160028151811061093b5761093a611721565b5b602002602001018190525060405180604001604052807f2d07dbd86bf4425fae2bb7216fc503541c250b7eb17cb1904d56db990111047c81526020017f0c1ec15a2ff82ba35f7fab0e259ed32df916cecdc25441987c431cea025012b481525081608001516003815181106109b3576109b2611721565b5b602002602001018190525060405180604001604052807f073d4e0baa139409378ec113a65ae50ac533cb393cf58c5e75ddb0f993ce281081526020017f0f90da530d037e0fba974df031b9a581a87d28578695d41ac3bbc0b34ac05a398152508160800151600481518110610a2b57610a2a611721565b5b602002602001018190525090565b610a416112cc565b610a496112e6565b836000015181600060038110610a6257610a61611721565b5b602002018181525050836020015181600160038110610a8457610a83611721565b5b6020020181815250508281600260038110610aa257610aa1611721565b5b602002018181525050600060608360808460076107d05a03fa90508060008114610acb57610acd565bfe5b5080610b0e576040517f08c379a0000000000000000000000000000000000000000000000000000000008152600401610b0590611953565b60405180910390fd5b505092915050565b610b1e6112cc565b610b26611308565b836000015181600060048110610b3f57610b3e611721565b5b602002018181525050836020015181600160048110610b6157610b60611721565b5b602002018181525050826000015181600260048110610b8357610b82611721565b5b602002018181525050826020015181600360048110610ba557610ba4611721565b5b602002018181525050600060608360c08460066107d05a03fa90508060008114610bce57610bd0565bfe5b5080610c11576040517f08c379a0000000000000000000000000000000000000000000000000000000008152600401610c08906119bf565b60405180910390fd5b505092915050565b610c216112cc565b60007f30644e72e131a029b85045b68181585d97816a916871ca8d3c208c16d87cfd47905060008360000151148015610c5e575060008360200151145b15610c82576040518060400160405280600081526020016000815250915050610cb9565b604051806040016040528084600001518152602001828560200151610ca79190611a0e565b83610cb29190611a3f565b8152509150505b919050565b600080600467ffffffffffffffff811115610cdc57610cdb6113b9565b5b604051908082528060200260200182016040528015610d1557816020015b610d026112cc565b815260200190600190039081610cfa5790505b5090506000600467ffffffffffffffff811115610d3557610d346113b9565b5b604051908082528060200260200182016040528015610d6e57816020015b610d5b61132a565b815260200190600190039081610d535790505b5090508a82600081518110610d8657610d85611721565b5b60200260200101819052508882600181518110610da657610da5611721565b5b60200260200101819052508682600281518110610dc657610dc5611721565b5b60200260200101819052508482600381518110610de657610de5611721565b5b60200260200101819052508981600081518110610e0657610e05611721565b5b60200260200101819052508781600181518110610e2657610e25611721565b5b60200260200101819052508581600281518110610e4657610e45611721565b5b60200260200101819052508381600381518110610e6657610e65611721565b5b6020026020010181905250610e7b8282610e8b565b9250505098975050505050505050565b60008151835114610ed1576040517f08c379a0000000000000000000000000000000000000000000000000000000008152600401610ec890611abf565b60405180910390fd5b6000835190506000600682610ee69190611adf565b905060008167ffffffffffffffff811115610f0457610f036113b9565b5b604051908082528060200260200182016040528015610f325781602001602082028036833780820191505090505b50905060005b838110156111b757868181518110610f5357610f52611721565b5b602002602001015160000151826000600684610f6f9190611adf565b610f7991906117c8565b81518110610f8a57610f89611721565b5b602002602001018181525050868181518110610fa957610fa8611721565b5b602002602001015160200151826001600684610fc59190611adf565b610fcf91906117c8565b81518110610fe057610fdf611721565b5b602002602001018181525050858181518110610fff57610ffe611721565b5b60200260200101516000015160006002811061101e5761101d611721565b5b60200201518260026006846110339190611adf565b61103d91906117c8565b8151811061104e5761104d611721565b5b60200260200101818152505085818151811061106d5761106c611721565b5b60200260200101516000015160016002811061108c5761108b611721565b5b60200201518260036006846110a19190611adf565b6110ab91906117c8565b815181106110bc576110bb611721565b5b6020026020010181815250508581815181106110db576110da611721565b5b6020026020010151602001516000600281106110fa576110f9611721565b5b602002015182600460068461110f9190611adf565b61111991906117c8565b8151811061112a57611129611721565b5b60200260200101818152505085818151811061114957611148611721565b5b60200260200101516020015160016002811061116857611167611721565b5b602002015182600560068461117d9190611adf565b61118791906117c8565b8151811061119857611197611721565b5b60200260200101818152505080806111af9061177f565b915050610f38565b506111c0611350565b6000602082602086026020860160086107d05a03fa905080600081146111e5576111e7565bfe5b5080611228576040517f08c379a000000000000000000000000000000000000000000000000000000000815260040161121f90611b85565b60405180910390fd5b60008260006001811061123e5761123d611721565b5b602002015114159550505050505092915050565b60405180606001604052806112656112cc565b815260200161127261132a565b815260200161127f6112cc565b81525090565b6040518060a001604052806112986112cc565b81526020016112a561132a565b81526020016112b261132a565b81526020016112bf61132a565b8152602001606081525090565b604051806040016040528060008152602001600081525090565b6040518060600160405280600390602082028036833780820191505090505090565b6040518060800160405280600490602082028036833780820191505090505090565b604051806040016040528061133d611372565b815260200161134a611372565b81525090565b6040518060200160405280600190602082028036833780820191505090505090565b6040518060400160405280600290602082028036833780820191505090505090565b6000604051905090565b600080fd5b600080fd5b6000601f19601f8301169050919050565b7f4e487b7100000000000000000000000000000000000000000000000000000000600052604160045260246000fd5b6113f1826113a8565b810181811067ffffffffffffffff821117156114105761140f6113b9565b5b80604052505050565b6000611423611394565b905061142f82826113e8565b919050565b600067ffffffffffffffff82111561144f5761144e6113b9565b5b602082029050919050565b600080fd5b6000819050919050565b6114728161145f565b811461147d57600080fd5b50565b60008135905061148f81611469565b92915050565b60006114a86114a384611434565b611419565b905080602084028301858111156114c2576114c161145a565b5b835b818110156114eb57806114d78882611480565b8452602084019350506020810190506114c4565b5050509392505050565b600082601f83011261150a576115096113a3565b5b6002611517848285611495565b91505092915050565b600067ffffffffffffffff82111561153b5761153a6113b9565b5b602082029050919050565b600061155961155484611520565b611419565b905080604084028301858111156115735761157261145a565b5b835b8181101561159c578061158888826114f5565b845260208401935050604081019050611575565b5050509392505050565b600082601f8301126115bb576115ba6113a3565b5b60026115c8848285611546565b91505092915050565b600067ffffffffffffffff8211156115ec576115eb6113b9565b5b602082029050919050565b600061160a611605846115d1565b611419565b905080602084028301858111156116245761162361145a565b5b835b8181101561164d57806116398882611480565b845260208401935050602081019050611626565b5050509392505050565b600082601f83011261166c5761166b6113a3565b5b60046116798482856115f7565b91505092915050565b600080600080610180858703121561169d5761169c61139e565b5b60006116ab878288016114f5565b94505060406116bc878288016115a6565b93505060c06116cd878288016114f5565b9250506101006116df87828801611657565b91505092959194509250565b60008115159050919050565b611700816116eb565b82525050565b600060208201905061171b60008301846116f7565b92915050565b7f4e487b7100000000000000000000000000000000000000000000000000000000600052603260045260246000fd5b7f4e487b7100000000000000000000000000000000000000000000000000000000600052601160045260246000fd5b600061178a8261145f565b91507fffffffffffffffffffffffffffffffffffffffffffffffffffffffffffffffff8214156117bd576117bc611750565b5b600182019050919050565b60006117d38261145f565b91506117de8361145f565b9250827fffffffffffffffffffffffffffffffffffffffffffffffffffffffffffffffff0382111561181357611812611750565b5b828201905092915050565b600082825260208201905092915050565b7f76657269666965722d6261642d696e7075740000000000000000000000000000600082015250565b600061186560128361181e565b91506118708261182f565b602082019050919050565b6000602082019050818103600083015261189481611858565b9050919050565b7f76657269666965722d6774652d736e61726b2d7363616c61722d6669656c6400600082015250565b60006118d1601f8361181e565b91506118dc8261189b565b602082019050919050565b60006020820190508181036000830152611900816118c4565b9050919050565b7f70616972696e672d6d756c2d6661696c65640000000000000000000000000000600082015250565b600061193d60128361181e565b915061194882611907565b602082019050919050565b6000602082019050818103600083015261196c81611930565b9050919050565b7f70616972696e672d6164642d6661696c65640000000000000000000000000000600082015250565b60006119a960128361181e565b91506119b482611973565b602082019050919050565b600060208201905081810360008301526119d88161199c565b9050919050565b7f4e487b7100000000000000000000000000000000000000000000000000000000600052601260045260246000fd5b6000611a198261145f565b9150611a248361145f565b925082611a3457611a336119df565b5b828206905092915050565b6000611a4a8261145f565b9150611a558361145f565b925082821015611a6857611a67611750565b5b828203905092915050565b7f70616972696e672d6c656e677468732d6661696c656400000000000000000000600082015250565b6000611aa960168361181e565b9150611ab482611a73565b602082019050919050565b60006020820190508181036000830152611ad881611a9c565b9050919050565b6000611aea8261145f565b9150611af58361145f565b9250817fffffffffffffffffffffffffffffffffffffffffffffffffffffffffffffffff0483118215151615611b2e57611b2d611750565b5b828202905092915050565b7f70616972696e672d6f70636f64652d6661696c65640000000000000000000000600082015250565b6000611b6f60158361181e565b9150611b7a82611b39565b602082019050919050565b60006020820190508181036000830152611b9e81611b62565b905091905056fea264697066735822122088c57f4db29a2aa00746f8d113237d3751c032dca56e048bb3260014eb56b4c664736f6c634300080a0033a2646970667358221220a86671ff988b77fb941786791ccbb75837a1458dcf6e670baa403bcbd181176d64736f6c634300080a0033",
  "immutableReferences": {},
  "source": "// SPDX-License-Identifier: MIT\npragma solidity >=0.4.22 <0.9.0;\nimport \"./verifier.sol\";\n\ncontract Junqi {\n  uint64 constant g = 69;\n  uint64 constant p = 999983;\n\n  uint64 last_id = 1;\n  uint64 public n_games = 0;\n  uint64 n_activegames = 0;\n\n\n\n  struct Proof{\n      bool wait_player1_proof; // true wait, false not wait\n      bool wait_player2_proof; //  \n      uint8 [2] player1_start_square;\n      uint8 [2] player2_start_square;\n      uint8 [2] player1_end_square;\n      uint8 [2] player2_end_square;\n      uint8 player1_start_square_rank;\n      uint8 player2_start_square_rank;\n      uint8 player1_end_square_rank;\n      uint8 player2_end_square_rank;\n  }\n  struct Game{\n      address p1;\n      address p2;\n      uint board1_hash;\n      uint board2_hash;\n      uint64 move_event_id;\n      int8 turn; // -1 for p1, 1 for p2\n      uint8 wait_rankString; // 0 for no waiting, 1 for waiting player 1, 2 for waiting player 2\n      bool active; // two players ready\n      bool p1_finish_setup;\n      bool p2_finish_setup;\n      bool finish_setup;\n      bool exists;\n      // for proof\n  }\n\n  event Join(uint index, uint gameID); // index: 0 for player1, 1 for player2\n\n  event FinishSetup(uint index, uint gameID); // index: 0 for player1, 1 for player2\n\n  event GameIDs(address indexed from, uint gameID);\n  event Move(string moveString,string rankString, int8 turn, uint gameID, uint64 id);\n\n\n  mapping(uint => uint) public gameList;\n  mapping(uint => Game) public games;\n  mapping(uint => Proof) public proofs;\n\n  function declare() external {\n    // pseudorandom gameID\n    uint64 gameID = (last_id * g) % p;\n    while (games[gameID].exists) {\n      gameID = (gameID + 1) % p;\n    }\n    last_id = gameID;\n    \n    Game storage game = games[gameID];\n    //Proof storage proof = proofs[gameID];\n\n    game.p1 = msg.sender;\n    game.board1_hash = 0;\n    game.p1_finish_setup = false;\n    game.turn = -1;\n    game.active = false;\n    game.exists = true;\n    game.finish_setup = false;\n    game.wait_rankString=0;\n    game.move_event_id = 0;\n\n    gameList[n_games] = gameID;\n    n_games++;\n    \n\n    emit GameIDs(msg.sender, gameID);\n    emit Join(0, gameID);\n  }\n  function join(uint gameID) external {\n    Game storage game = games[gameID];\n    require(game.exists && !game.active);\n    require(msg.sender!=game.p1);\n    game.p2 = msg.sender;\n    game.board2_hash = 0;\n    game.p2_finish_setup = false;\n\n    game.active = true;\n    n_activegames++;\n\n    emit Join(1, gameID);\n  }\n  function finishSetup (uint gameID,uint[2] memory a,uint[2][2] memory b,uint[2] memory c,uint[4] memory input) external {\n    Game storage game = games[gameID];\n    require(game.exists && game.active&&!game.finish_setup);\n    if(msg.sender == game.p1){\n     require(game.p1_finish_setup!=true);\n     Verifier verifier = new Verifier();\n     require(verifier.verifyProof(a, b, c, input)==true);\n     game.p1_finish_setup = true;\n     game.board1_hash = input[0];\n     emit FinishSetup(0,gameID);\n    }else if (msg.sender == game.p2){\n     require(game.p2_finish_setup!=true);\n     Verifier verifier = new Verifier();\n     require(verifier.verifyProof(a, b, c, input)==true);\n     game.p2_finish_setup = true;\n     game.board2_hash = input[0];\n     emit FinishSetup(1,gameID);\n    }\n    if(game.p1_finish_setup==true&&game.p2_finish_setup==true){\n     game.finish_setup = true;\n     //emit FinishSetup(2,gameID);\n    }\n    // TODO zksnark verifier\n    \n  }\n  function move (string memory moveString,string memory rankString, uint gameID) external {\n    // rank string = -1 => move\n    // rank string != -1 => attack\n    Game storage game = games[gameID];\n    Proof storage proof = proofs[gameID];\n    require(game.exists && game.active && game.finish_setup);\n    if(game.wait_rankString==0){\n      require((msg.sender == game.p1&&game.turn==-1)||(msg.sender == game.p2&&game.turn==1));\n      if(keccak256(abi.encodePacked(rankString))==keccak256(abi.encodePacked(\"-1\"))){\n        //normal\n        emit Move(moveString,rankString, game.turn, gameID,game.move_event_id);\n        game.move_event_id+=1;\n        proof.wait_player1_proof = true;\n        proof.wait_player2_proof = true;\n        //game.turn = game.turn * -1;\n      }else{\n        //attack\n        emit Move(moveString, rankString, game.turn, gameID,game.move_event_id);\n        game.move_event_id+=1;\n        game.wait_rankString=(msg.sender==game.p1)?2:1;\n        proof.wait_player1_proof = true;\n        proof.wait_player2_proof = true;\n      }\n    }else{\n      if(game.wait_rankString==1){\n        require(msg.sender == game.p1);\n        emit Move(moveString, rankString, -1, gameID,game.move_event_id);\n        game.move_event_id+=1;\n        game.wait_rankString=0;\n        //game.turn = game.turn * -1;\n      }else if (game.wait_rankString==2){\n        require(msg.sender == game.p2);\n        emit Move(moveString, rankString, 1, gameID,game.move_event_id);\n        game.move_event_id+=1;\n        game.wait_rankString=0;\n        //game.turn = game.turn * -1;\n      }\n    }\n  }\n\n  function proveMove(uint gameID) external{\n    Game storage game = games[gameID];\n    Proof storage proof = proofs[gameID];\n    require((proof.wait_player1_proof == true && msg.sender == game.p1)||(proof.wait_player2_proof == true && msg.sender == game.p2));\n    if(msg.sender == game.p1){\n      // verifier proof\n      // game.player1_start_square = \n      // game.player1_end_square = \n      // game.player1_start_square_rank = \n      // game.player1_end_square_rank =\n      // game.board1_hash =  \n      proof.wait_player1_proof = false;\n    }else{\n      // verifier proof\n      // game.player2_start_square = \n      // game.player2_end_square = \n      // game.player2_start_square_rank = \n      // game.player2_end_square_rank = \n      // game.board2_hash = \n      proof.wait_player2_proof = false;\n    }\n    if (proof.wait_player1_proof = false && proof.wait_player2_proof == false){\n      //require(game.player1_start_square == game.player2_start_square);\n      //require(game.player1_end_square == game.player1_end_square);\n      //require(game.player1_start_square_rank == game.player2_start_square_rank);\n      //require(game.player1_end_square_rank == game.player2_end_square_rank);\n      game.turn = game.turn * -1;\n    }\n  }\n\n  function checkGameEnd() internal{\n\n  }\n}",
  "sourcePath": "/home/yxcy/Desktop/pcs-project/smart_contract/contracts/Junqi.sol",
  "compiler": {
    "name": "solc",
    "version": "0.8.10+commit.fc410830.Emscripten.clang"
  },
  "schemaVersion": "3.4.3",
  "updatedAt": "2021-12-01T01:02:26.711Z",
  "networkType": "ethereum",
  "devdoc": {
    "kind": "dev",
    "methods": {},
    "version": 1
  },
  "userdoc": {
    "kind": "user",
    "methods": {},
    "version": 1
  }
}