{
  "contractName": "Junqi",
  "abi": [
    {
      "anonymous": false,
      "inputs": [
        {
          "indexed": false,
          "internalType": "uint256",
          "name": "index",
          "type": "uint256"
        },
        {
          "indexed": false,
          "internalType": "uint256",
          "name": "gameID",
          "type": "uint256"
        }
      ],
      "name": "FinishSetup",
      "type": "event"
    },
    {
      "anonymous": false,
      "inputs": [
        {
          "indexed": true,
          "internalType": "address",
          "name": "from",
          "type": "address"
        },
        {
          "indexed": false,
          "internalType": "uint256",
          "name": "gameID",
          "type": "uint256"
        }
      ],
      "name": "GameIDs",
      "type": "event"
    },
    {
      "anonymous": false,
      "inputs": [
        {
          "indexed": false,
          "internalType": "uint256",
          "name": "index",
          "type": "uint256"
        },
        {
          "indexed": false,
          "internalType": "uint256",
          "name": "gameID",
          "type": "uint256"
        }
      ],
      "name": "Join",
      "type": "event"
    },
    {
      "anonymous": false,
      "inputs": [
        {
          "indexed": false,
          "internalType": "string",
          "name": "moveString",
          "type": "string"
        },
        {
          "indexed": false,
          "internalType": "string",
          "name": "rankString",
          "type": "string"
        },
        {
          "indexed": false,
          "internalType": "int8",
          "name": "turn",
          "type": "int8"
        },
        {
          "indexed": false,
          "internalType": "uint256",
          "name": "gameID",
          "type": "uint256"
        },
        {
          "indexed": false,
          "internalType": "uint64",
          "name": "id",
          "type": "uint64"
        }
      ],
      "name": "Move",
      "type": "event"
    },
    {
      "inputs": [
        {
          "internalType": "uint256",
          "name": "",
          "type": "uint256"
        }
      ],
      "name": "gameList",
      "outputs": [
        {
          "internalType": "uint256",
          "name": "",
          "type": "uint256"
        }
      ],
      "stateMutability": "view",
      "type": "function",
      "constant": true
    },
    {
      "inputs": [
        {
          "internalType": "uint256",
          "name": "",
          "type": "uint256"
        }
      ],
      "name": "games",
      "outputs": [
        {
          "internalType": "address",
          "name": "p1",
          "type": "address"
        },
        {
          "internalType": "address",
          "name": "p2",
          "type": "address"
        },
        {
          "internalType": "uint64",
          "name": "board1_hash",
          "type": "uint64"
        },
        {
          "internalType": "uint64",
          "name": "board2_hash",
          "type": "uint64"
        },
        {
          "internalType": "uint64",
          "name": "move_event_id",
          "type": "uint64"
        },
        {
          "internalType": "int8",
          "name": "turn",
          "type": "int8"
        },
        {
          "internalType": "uint8",
          "name": "wait_rankString",
          "type": "uint8"
        },
        {
          "internalType": "bool",
          "name": "active",
          "type": "bool"
        },
        {
          "internalType": "bool",
          "name": "p1_finish_setup",
          "type": "bool"
        },
        {
          "internalType": "bool",
          "name": "p2_finish_setup",
          "type": "bool"
        },
        {
          "internalType": "bool",
          "name": "finish_setup",
          "type": "bool"
        },
        {
          "internalType": "bool",
          "name": "exists",
          "type": "bool"
        }
      ],
      "stateMutability": "view",
      "type": "function",
      "constant": true
    },
    {
      "inputs": [],
      "name": "n_games",
      "outputs": [
        {
          "internalType": "uint64",
          "name": "",
          "type": "uint64"
        }
      ],
      "stateMutability": "view",
      "type": "function",
      "constant": true
    },
    {
      "inputs": [],
      "name": "declare",
      "outputs": [],
      "stateMutability": "nonpayable",
      "type": "function"
    },
    {
      "inputs": [
        {
          "internalType": "uint256",
          "name": "gameID",
          "type": "uint256"
        }
      ],
      "name": "join",
      "outputs": [],
      "stateMutability": "nonpayable",
      "type": "function"
    },
    {
      "inputs": [
        {
          "internalType": "uint256",
          "name": "gameID",
          "type": "uint256"
        }
      ],
      "name": "finishSetup",
      "outputs": [],
      "stateMutability": "nonpayable",
      "type": "function"
    },
    {
      "inputs": [
        {
          "internalType": "string",
          "name": "moveString",
          "type": "string"
        },
        {
          "internalType": "string",
          "name": "rankString",
          "type": "string"
        },
        {
          "internalType": "uint256",
          "name": "gameID",
          "type": "uint256"
        }
      ],
      "name": "move",
      "outputs": [],
      "stateMutability": "nonpayable",
      "type": "function"
    }
  ],
  "bytecode": "0x608060405260016000806101000a81548167ffffffffffffffff021916908367ffffffffffffffff16021790555060008060086101000a81548167ffffffffffffffff021916908367ffffffffffffffff16021790555060008060106101000a81548167ffffffffffffffff021916908367ffffffffffffffff16021790555034801561008b57600080fd5b50611de68061009b6000396000f3fe608060405234801561001057600080fd5b506004361061007d5760003560e01c80637cb4c8131161005b5780637cb4c813146100e3578063c4bbf16d14610101578063c6cfd08e1461011d578063c8d337441461014d5761007d565b8063049878f314610082578063117a5b901461009e5780634ccde688146100d9575b600080fd5b61009c60048036038101906100979190611378565b610169565b005b6100b860048036038101906100b39190611378565b610460565b6040516100d09c9b9a9998979695949392919061145c565b60405180910390f35b6100e1610597565b005b6100eb6108f0565b6040516100f89190611516565b60405180910390f35b61011b60048036038101906101169190611677565b61090a565b005b61013760048036038101906101329190611378565b6110a3565b6040516101449190611711565b60405180910390f35b61016760048036038101906101629190611378565b6110bb565b005b600060026000838152602001908152602001600020905080600e01601e9054906101000a900460ff1680156101ad575080600e01601a9054906101000a900460ff16155b6101b657600080fd5b338160010160006101000a81548173ffffffffffffffffffffffffffffffffffffffff021916908373ffffffffffffffffffffffffffffffffffffffff160217905550600081600e0160086101000a81548167ffffffffffffffff021916908367ffffffffffffffff160217905550600081600e01601c6101000a81548160ff021916908315150217905550600181600e01601a6101000a81548160ff0219169083151502179055506000601081819054906101000a900467ffffffffffffffff16809291906102859061175b565b91906101000a81548167ffffffffffffffff021916908367ffffffffffffffff1602179055505060007fffffffffffffffffffffffffffffffffffffffffffffffffffffffffffffffff905060005b600c8160ff1610156104205760058160ff161115610310577ffffffffffffffffffffffffffffffffffffffffffffffffffffffffffffffffe91505b60005b60058160ff16101561040c5760028260ff161480610334575060048260ff16145b80610342575060078260ff16145b80610350575060098260ff16145b801561036d575060018160ff16148061036c575060038160ff16145b5b15610377576103f9565b60038260ff16148061038c575060088260ff16145b801561039b575060028160ff16145b156103a5576103f9565b82846002018360ff16600c81106103bf576103be61178c565b5b018260ff16600581106103d5576103d461178c565b5b602091828204019190066101000a81548160ff021916908360000b60ff1602179055505b8080610404906117bb565b915050610313565b508080610418906117bb565b9150506102d4565b507f735ef78aed2bd4cfae4d08680b7cb333d4aa561d0287a81d4abbac0b4b64d58960018460405161045392919061182a565b60405180910390a1505050565b60026020528060005260406000206000915090508060000160009054906101000a900473ffffffffffffffffffffffffffffffffffffffff16908060010160009054906101000a900473ffffffffffffffffffffffffffffffffffffffff169080600e0160009054906101000a900467ffffffffffffffff169080600e0160089054906101000a900467ffffffffffffffff169080600e0160109054906101000a900467ffffffffffffffff169080600e0160189054906101000a900460000b9080600e0160199054906101000a900460ff169080600e01601a9054906101000a900460ff169080600e01601b9054906101000a900460ff169080600e01601c9054906101000a900460ff169080600e01601d9054906101000a900460ff169080600e01601e9054906101000a900460ff1690508c565b6000620f422f604560008054906101000a900467ffffffffffffffff166105be9190611853565b6105c891906118c4565b90505b600260008267ffffffffffffffff168152602001908152602001600020600e01601e9054906101000a900460ff161561062057620f422f60018261060f91906118f5565b61061991906118c4565b90506105cb565b806000806101000a81548167ffffffffffffffff021916908367ffffffffffffffff1602179055506000600260008367ffffffffffffffff1681526020019081526020016000209050338160000160006101000a81548173ffffffffffffffffffffffffffffffffffffffff021916908373ffffffffffffffffffffffffffffffffffffffff160217905550600081600e0160006101000a81548167ffffffffffffffff021916908367ffffffffffffffff160217905550600081600e01601b6101000a81548160ff0219169083151502179055507fffffffffffffffffffffffffffffffffffffffffffffffffffffffffffffffff81600e0160186101000a81548160ff021916908360000b60ff160217905550600081600e01601a6101000a81548160ff021916908315150217905550600181600e01601e6101000a81548160ff021916908315150217905550600081600e01601d6101000a81548160ff021916908315150217905550600081600e0160196101000a81548160ff021916908360ff160217905550600081600e0160106101000a81548167ffffffffffffffff021916908367ffffffffffffffff1602179055508167ffffffffffffffff16600160008060089054906101000a900467ffffffffffffffff1667ffffffffffffffff168152602001908152602001600020819055506000600881819054906101000a900467ffffffffffffffff168092919061083d9061175b565b91906101000a81548167ffffffffffffffff021916908367ffffffffffffffff160217905550503373ffffffffffffffffffffffffffffffffffffffff167f0b00eaed7a0d55952ef3dd90aadf03196cf0a192aec8f034c574b5bf7ab4f0ea836040516108aa9190611964565b60405180910390a27f735ef78aed2bd4cfae4d08680b7cb333d4aa561d0287a81d4abbac0b4b64d5896000836040516108e49291906119ba565b60405180910390a15050565b600060089054906101000a900467ffffffffffffffff1681565b600060026000838152602001908152602001600020905080600e01601e9054906101000a900460ff16801561094d575080600e01601a9054906101000a900460ff165b8015610967575080600e01601d9054906101000a900460ff165b61097057600080fd5b600081600e0160199054906101000a900460ff1660ff161415610d44578060000160009054906101000a900473ffffffffffffffffffffffffffffffffffffffff1673ffffffffffffffffffffffffffffffffffffffff163373ffffffffffffffffffffffffffffffffffffffff16148015610a1f57507fffffffffffffffffffffffffffffffffffffffffffffffffffffffffffffffff81600e0160189054906101000a900460000b60000b145b80610a9957508060010160009054906101000a900473ffffffffffffffffffffffffffffffffffffffff1673ffffffffffffffffffffffffffffffffffffffff163373ffffffffffffffffffffffffffffffffffffffff16148015610a985750600181600e0160189054906101000a900460000b60000b145b5b610aa257600080fd5b604051602001610ab190611a3a565b6040516020818303038152906040528051906020012083604051602001610ad89190611abe565b604051602081830303815290604052805190602001201415610c0b577f4c145c32fa51dcba135e9e04ac24023a29e2634d638239348ddb2096b6f8f15b848483600e0160189054906101000a900460000b8585600e0160109054906101000a900467ffffffffffffffff16604051610b54959493929190611b1f565b60405180910390a1600181600e0160108282829054906101000a900467ffffffffffffffff16610b8491906118f5565b92506101000a81548167ffffffffffffffff021916908367ffffffffffffffff1602179055507fffffffffffffffffffffffffffffffffffffffffffffffffffffffffffffffff81600e0160189054906101000a900460000b610be79190611b80565b81600e0160186101000a81548160ff021916908360000b60ff160217905550610d3f565b7f4c145c32fa51dcba135e9e04ac24023a29e2634d638239348ddb2096b6f8f15b848483600e0160189054906101000a900460000b8585600e0160109054906101000a900467ffffffffffffffff16604051610c6b959493929190611b1f565b60405180910390a1600181600e0160108282829054906101000a900467ffffffffffffffff16610c9b91906118f5565b92506101000a81548167ffffffffffffffff021916908367ffffffffffffffff1602179055508060000160009054906101000a900473ffffffffffffffffffffffffffffffffffffffff1673ffffffffffffffffffffffffffffffffffffffff163373ffffffffffffffffffffffffffffffffffffffff1614610d1f576001610d22565b60025b81600e0160196101000a81548160ff021916908360ff1602179055505b61109d565b600181600e0160199054906101000a900460ff1660ff161415610f01578060000160009054906101000a900473ffffffffffffffffffffffffffffffffffffffff1673ffffffffffffffffffffffffffffffffffffffff163373ffffffffffffffffffffffffffffffffffffffff1614610dbd57600080fd5b7f4c145c32fa51dcba135e9e04ac24023a29e2634d638239348ddb2096b6f8f15b84847fffffffffffffffffffffffffffffffffffffffffffffffffffffffffffffffff8585600e0160109054906101000a900467ffffffffffffffff16604051610e2c959493929190611c94565b60405180910390a1600181600e0160108282829054906101000a900467ffffffffffffffff16610e5c91906118f5565b92506101000a81548167ffffffffffffffff021916908367ffffffffffffffff160217905550600081600e0160196101000a81548160ff021916908360ff1602179055507fffffffffffffffffffffffffffffffffffffffffffffffffffffffffffffffff81600e0160189054906101000a900460000b610edd9190611b80565b81600e0160186101000a81548160ff021916908360000b60ff16021790555061109c565b600281600e0160199054906101000a900460ff1660ff16141561109b578060010160009054906101000a900473ffffffffffffffffffffffffffffffffffffffff1673ffffffffffffffffffffffffffffffffffffffff163373ffffffffffffffffffffffffffffffffffffffff1614610f7a57600080fd5b7f4c145c32fa51dcba135e9e04ac24023a29e2634d638239348ddb2096b6f8f15b848460018585600e0160109054906101000a900467ffffffffffffffff16604051610fca959493929190611d26565b60405180910390a1600181600e0160108282829054906101000a900467ffffffffffffffff16610ffa91906118f5565b92506101000a81548167ffffffffffffffff021916908367ffffffffffffffff160217905550600081600e0160196101000a81548160ff021916908360ff1602179055507fffffffffffffffffffffffffffffffffffffffffffffffffffffffffffffffff81600e0160189054906101000a900460000b61107b9190611b80565b81600e0160186101000a81548160ff021916908360000b60ff1602179055505b5b5b50505050565b60016020528060005260406000206000915090505481565b600060026000838152602001908152602001600020905080600e01601e9054906101000a900460ff1680156110fe575080600e01601a9054906101000a900460ff165b8015611119575080600e01601d9054906101000a900460ff16155b61112257600080fd5b8060000160009054906101000a900473ffffffffffffffffffffffffffffffffffffffff1673ffffffffffffffffffffffffffffffffffffffff163373ffffffffffffffffffffffffffffffffffffffff1614156111f9576001151581600e01601b9054906101000a900460ff161515141561119d57600080fd5b600181600e01601b6101000a81548160ff0219169083151502179055507fef1aeead3a48aa63ba839793f58e4a7a038dcba7a2b9c6fd48f586bf2c6ec59c6000836040516111ec929190611d87565b60405180910390a16112cd565b8060010160009054906101000a900473ffffffffffffffffffffffffffffffffffffffff1673ffffffffffffffffffffffffffffffffffffffff163373ffffffffffffffffffffffffffffffffffffffff1614156112cc576001151581600e01601c9054906101000a900460ff161515141561127457600080fd5b600181600e01601c6101000a81548160ff0219169083151502179055507fef1aeead3a48aa63ba839793f58e4a7a038dcba7a2b9c6fd48f586bf2c6ec59c6001836040516112c392919061182a565b60405180910390a15b5b6001151581600e01601b9054906101000a900460ff16151514801561130757506001151581600e01601c9054906101000a900460ff161515145b1561132a57600181600e01601d6101000a81548160ff0219169083151502179055505b5050565b6000604051905090565b600080fd5b600080fd5b6000819050919050565b61135581611342565b811461136057600080fd5b50565b6000813590506113728161134c565b92915050565b60006020828403121561138e5761138d611338565b5b600061139c84828501611363565b91505092915050565b600073ffffffffffffffffffffffffffffffffffffffff82169050919050565b60006113d0826113a5565b9050919050565b6113e0816113c5565b82525050565b600067ffffffffffffffff82169050919050565b611403816113e6565b82525050565b60008160000b9050919050565b61141f81611409565b82525050565b600060ff82169050919050565b61143b81611425565b82525050565b60008115159050919050565b61145681611441565b82525050565b600061018082019050611472600083018f6113d7565b61147f602083018e6113d7565b61148c604083018d6113fa565b611499606083018c6113fa565b6114a6608083018b6113fa565b6114b360a083018a611416565b6114c060c0830189611432565b6114cd60e083018861144d565b6114db61010083018761144d565b6114e961012083018661144d565b6114f761014083018561144d565b61150561016083018461144d565b9d9c50505050505050505050505050565b600060208201905061152b60008301846113fa565b92915050565b600080fd5b600080fd5b6000601f19601f8301169050919050565b7f4e487b7100000000000000000000000000000000000000000000000000000000600052604160045260246000fd5b6115848261153b565b810181811067ffffffffffffffff821117156115a3576115a261154c565b5b80604052505050565b60006115b661132e565b90506115c2828261157b565b919050565b600067ffffffffffffffff8211156115e2576115e161154c565b5b6115eb8261153b565b9050602081019050919050565b82818337600083830152505050565b600061161a611615846115c7565b6115ac565b90508281526020810184848401111561163657611635611536565b5b6116418482856115f8565b509392505050565b600082601f83011261165e5761165d611531565b5b813561166e848260208601611607565b91505092915050565b6000806000606084860312156116905761168f611338565b5b600084013567ffffffffffffffff8111156116ae576116ad61133d565b5b6116ba86828701611649565b935050602084013567ffffffffffffffff8111156116db576116da61133d565b5b6116e786828701611649565b92505060406116f886828701611363565b9150509250925092565b61170b81611342565b82525050565b60006020820190506117266000830184611702565b92915050565b7f4e487b7100000000000000000000000000000000000000000000000000000000600052601160045260246000fd5b6000611766826113e6565b915067ffffffffffffffff8214156117815761178061172c565b5b600182019050919050565b7f4e487b7100000000000000000000000000000000000000000000000000000000600052603260045260246000fd5b60006117c682611425565b915060ff8214156117da576117d961172c565b5b600182019050919050565b6000819050919050565b6000819050919050565b600061181461180f61180a846117e5565b6117ef565b611342565b9050919050565b611824816117f9565b82525050565b600060408201905061183f600083018561181b565b61184c6020830184611702565b9392505050565b600061185e826113e6565b9150611869836113e6565b92508167ffffffffffffffff048311821515161561188a5761188961172c565b5b828202905092915050565b7f4e487b7100000000000000000000000000000000000000000000000000000000600052601260045260246000fd5b60006118cf826113e6565b91506118da836113e6565b9250826118ea576118e9611895565b5b828206905092915050565b6000611900826113e6565b915061190b836113e6565b92508267ffffffffffffffff038211156119285761192761172c565b5b828201905092915050565b600061194e611949611944846113e6565b6117ef565b611342565b9050919050565b61195e81611933565b82525050565b60006020820190506119796000830184611955565b92915050565b6000819050919050565b60006119a461199f61199a8461197f565b6117ef565b611342565b9050919050565b6119b481611989565b82525050565b60006040820190506119cf60008301856119ab565b6119dc6020830184611955565b9392505050565b600081905092915050565b7f2d31000000000000000000000000000000000000000000000000000000000000600082015250565b6000611a246002836119e3565b9150611a2f826119ee565b600282019050919050565b6000611a4582611a17565b9150819050919050565b600081519050919050565b60005b83811015611a78578082015181840152602081019050611a5d565b83811115611a87576000848401525b50505050565b6000611a9882611a4f565b611aa281856119e3565b9350611ab2818560208601611a5a565b80840191505092915050565b6000611aca8284611a8d565b915081905092915050565b600082825260208201905092915050565b6000611af182611a4f565b611afb8185611ad5565b9350611b0b818560208601611a5a565b611b148161153b565b840191505092915050565b600060a0820190508181036000830152611b398188611ae6565b90508181036020830152611b4d8187611ae6565b9050611b5c6040830186611416565b611b696060830185611702565b611b7660808301846113fa565b9695505050505050565b6000611b8b82611409565b9150611b9683611409565b925082607f0482116000841360008413161615611bb657611bb561172c565b5b817fffffffffffffffffffffffffffffffffffffffffffffffffffffffffffffff800583126000841260008413161615611bf357611bf261172c565b5b827fffffffffffffffffffffffffffffffffffffffffffffffffffffffffffffff800582126000841360008412161615611c3057611c2f61172c565b5b82607f0582126000841260008412161615611c4e57611c4d61172c565b5b828202905092915050565b6000819050919050565b6000611c7e611c79611c7484611c59565b6117ef565b611409565b9050919050565b611c8e81611c63565b82525050565b600060a0820190508181036000830152611cae8188611ae6565b90508181036020830152611cc28187611ae6565b9050611cd16040830186611c85565b611cde6060830185611702565b611ceb60808301846113fa565b9695505050505050565b6000611d10611d0b611d06846117e5565b6117ef565b611409565b9050919050565b611d2081611cf5565b82525050565b600060a0820190508181036000830152611d408188611ae6565b90508181036020830152611d548187611ae6565b9050611d636040830186611d17565b611d706060830185611702565b611d7d60808301846113fa565b9695505050505050565b6000604082019050611d9c60008301856119ab565b611da96020830184611702565b939250505056fea2646970667358221220e71aebe85be08c2361a4ebf24171a74feeea2495e70087997523349e968c963564736f6c634300080a0033",
  "immutableReferences": {},
  "source": "// SPDX-License-Identifier: MIT\npragma solidity >=0.4.22 <0.9.0;\ncontract Junqi {\n  uint64 constant g = 69;\n  uint64 constant p = 999983;\n\n  uint64 last_id = 1;\n  uint64 public n_games = 0;\n  uint64 n_activegames = 0;\n\n  struct Game{\n      address p1;\n      address p2;\n      int8 [5][12] board;\n      uint64 board1_hash;\n      uint64 board2_hash;\n      uint64 move_event_id;\n      int8 turn; // -1 for p1, 1 for p2\n      uint8 wait_rankString; // 0 for no waiting, 1 for waiting player 1, 2 for waiting player 2\n      bool active; // two players ready\n      bool p1_finish_setup;\n      bool p2_finish_setup;\n      bool finish_setup;\n      bool exists;\n  }\n\n  event Join(uint index, uint gameID); // index: 0 for player1, 1 for player2\n\n  event FinishSetup(uint index, uint gameID); // index: 0 for player1, 1 for player2\n\n  event GameIDs(address indexed from, uint gameID);\n  event Move(string moveString,string rankString, int8 turn, uint gameID, uint64 id);\n\n\n  mapping(uint => uint) public gameList;\n  mapping(uint => Game) public games;\n\n  function declare() external {\n    // pseudorandom gameID\n    uint64 gameID = (last_id * g) % p;\n    while (games[gameID].exists) {\n      gameID = (gameID + 1) % p;\n    }\n    last_id = gameID;\n    \n    Game storage game = games[gameID];\n\n    game.p1 = msg.sender;\n    game.board1_hash = 0;\n    game.p1_finish_setup = false;\n    game.turn = -1;\n    game.active = false;\n    game.exists = true;\n    game.finish_setup = false;\n    game.wait_rankString=0;\n    game.move_event_id = 0;\n\n    gameList[n_games] = gameID;\n    n_games++;\n    \n\n    emit GameIDs(msg.sender, gameID);\n    emit Join(0, gameID);\n  }\n  function join(uint gameID) external {\n    Game storage game = games[gameID];\n    require(game.exists && !game.active);\n\n    game.p2 = msg.sender;\n    game.board2_hash = 0;\n    game.p2_finish_setup = false;\n\n    game.active = true;\n    n_activegames++;\n\n    // init the board\n    // -1 for hide player1\n    // -2 for hide player2\n    // 0,...,11 for player1\n    // 12,...,23 for player2\n    int8 tmp = -1;\n    for (uint8 i = 0; i<12 ; i++){\n       if(i>5){tmp=-2;}  \n       for (uint8 j = 0; j<5; j++){\n         if((i==2||i==4||i==7||i==9)&&(j==1||j==3)){\n           continue;\n         }\n         if((i==3||i==8)&&(j==2)){\n           continue;\n         }\n         game.board[i][j]=tmp;\n       }\n     }\n    // Emit event\n    emit Join(1, gameID);\n  }\n  function finishSetup (uint gameID) external {\n    Game storage game = games[gameID];\n    require(game.exists && game.active&&!game.finish_setup);\n    if(msg.sender == game.p1){\n     require(game.p1_finish_setup!=true);\n     game.p1_finish_setup = true;\n     emit FinishSetup(0,gameID);\n    }else if (msg.sender == game.p2){\n     require(game.p2_finish_setup!=true);\n     game.p2_finish_setup = true;\n     emit FinishSetup(1,gameID);\n    }\n    if(game.p1_finish_setup==true&&game.p2_finish_setup==true){\n     game.finish_setup = true;\n     //emit FinishSetup(2,gameID);\n    }\n  }\n  function move (string memory moveString,string memory rankString, uint gameID) external {\n    // rank string = -1 => move\n    // rank string != -1 => attack\n    Game storage game = games[gameID];\n    require(game.exists && game.active && game.finish_setup);\n    if(game.wait_rankString==0){\n      require((msg.sender == game.p1&&game.turn==-1)||(msg.sender == game.p2&&game.turn==1));\n      if(keccak256(abi.encodePacked(rankString))==keccak256(abi.encodePacked(\"-1\"))){\n        //normal\n        emit Move(moveString,rankString, game.turn, gameID,game.move_event_id);\n        game.move_event_id+=1;\n        game.turn = game.turn * -1;\n      }else{\n        //attack\n        emit Move(moveString, rankString, game.turn, gameID,game.move_event_id);\n        game.move_event_id+=1;\n        game.wait_rankString=(msg.sender==game.p1)?2:1;\n      }\n    }else{\n      if(game.wait_rankString==1){\n        require(msg.sender == game.p1);\n        emit Move(moveString, rankString, -1, gameID,game.move_event_id);\n        game.move_event_id+=1;\n        game.wait_rankString=0;\n        game.turn = game.turn * -1;\n      }else if (game.wait_rankString==2){\n        require(msg.sender == game.p2);\n        emit Move(moveString, rankString, 1, gameID,game.move_event_id);\n        game.move_event_id+=1;\n        game.wait_rankString=0;\n        game.turn = game.turn * -1;\n      }\n    }\n  }\n  function checkGameEnd() internal{\n\n  }\n}",
  "sourcePath": "/home/yxcy/Desktop/pcs-project/smart_contract/contracts/Junqi.sol",
  "compiler": {
    "name": "solc",
    "version": "0.8.10+commit.fc410830.Emscripten.clang"
  },
  "schemaVersion": "3.4.3",
  "updatedAt": "2021-11-28T02:13:29.205Z",
  "networkType": "ethereum",
  "devdoc": {
    "kind": "dev",
    "methods": {},
    "version": 1
  },
  "userdoc": {
    "kind": "user",
    "methods": {},
    "version": 1
  }
}