{
  "contractName": "Junqi",
  "abi": [
    {
      "anonymous": false,
      "inputs": [
        {
          "indexed": false,
          "internalType": "uint256",
          "name": "index",
          "type": "uint256"
        },
        {
          "indexed": false,
          "internalType": "uint256",
          "name": "gameID",
          "type": "uint256"
        }
      ],
      "name": "FinishSetup",
      "type": "event"
    },
    {
      "anonymous": false,
      "inputs": [
        {
          "indexed": true,
          "internalType": "address",
          "name": "from",
          "type": "address"
        },
        {
          "indexed": false,
          "internalType": "uint256",
          "name": "gameID",
          "type": "uint256"
        }
      ],
      "name": "GameIDs",
      "type": "event"
    },
    {
      "anonymous": false,
      "inputs": [
        {
          "indexed": false,
          "internalType": "uint256",
          "name": "index",
          "type": "uint256"
        },
        {
          "indexed": false,
          "internalType": "uint256",
          "name": "gameID",
          "type": "uint256"
        }
      ],
      "name": "Join",
      "type": "event"
    },
    {
      "inputs": [
        {
          "internalType": "uint256",
          "name": "",
          "type": "uint256"
        }
      ],
      "name": "gameList",
      "outputs": [
        {
          "internalType": "uint256",
          "name": "",
          "type": "uint256"
        }
      ],
      "stateMutability": "view",
      "type": "function",
      "constant": true
    },
    {
      "inputs": [
        {
          "internalType": "uint256",
          "name": "",
          "type": "uint256"
        }
      ],
      "name": "games",
      "outputs": [
        {
          "internalType": "address",
          "name": "p1",
          "type": "address"
        },
        {
          "internalType": "address",
          "name": "p2",
          "type": "address"
        },
        {
          "internalType": "uint64",
          "name": "board1_hash",
          "type": "uint64"
        },
        {
          "internalType": "uint64",
          "name": "board2_hash",
          "type": "uint64"
        },
        {
          "internalType": "uint256",
          "name": "turn",
          "type": "uint256"
        },
        {
          "internalType": "bool",
          "name": "active",
          "type": "bool"
        },
        {
          "internalType": "bool",
          "name": "p1_finish_setup",
          "type": "bool"
        },
        {
          "internalType": "bool",
          "name": "p2_finish_setup",
          "type": "bool"
        },
        {
          "internalType": "bool",
          "name": "finish_setup",
          "type": "bool"
        },
        {
          "internalType": "uint64",
          "name": "winner",
          "type": "uint64"
        },
        {
          "internalType": "bool",
          "name": "exists",
          "type": "bool"
        },
        {
          "internalType": "uint64",
          "name": "lastMoves",
          "type": "uint64"
        }
      ],
      "stateMutability": "view",
      "type": "function",
      "constant": true
    },
    {
      "inputs": [],
      "name": "n_games",
      "outputs": [
        {
          "internalType": "uint64",
          "name": "",
          "type": "uint64"
        }
      ],
      "stateMutability": "view",
      "type": "function",
      "constant": true
    },
    {
      "inputs": [],
      "name": "declare",
      "outputs": [],
      "stateMutability": "nonpayable",
      "type": "function"
    },
    {
      "inputs": [
        {
          "internalType": "uint256",
          "name": "gameID",
          "type": "uint256"
        }
      ],
      "name": "join",
      "outputs": [],
      "stateMutability": "nonpayable",
      "type": "function"
    },
    {
      "inputs": [
        {
          "internalType": "uint256",
          "name": "gameID",
          "type": "uint256"
        }
      ],
      "name": "finishSetup",
      "outputs": [],
      "stateMutability": "nonpayable",
      "type": "function"
    },
    {
      "inputs": [],
      "name": "move",
      "outputs": [],
      "stateMutability": "nonpayable",
      "type": "function"
    }
  ],
  "bytecode": "0x608060405260016000806101000a81548167ffffffffffffffff021916908367ffffffffffffffff16021790555060008060086101000a81548167ffffffffffffffff021916908367ffffffffffffffff16021790555060008060106101000a81548167ffffffffffffffff021916908367ffffffffffffffff16021790555034801561008b57600080fd5b50610e898061009b6000396000f3fe608060405234801561001057600080fd5b506004361061007d5760003560e01c80634ccde6881161005b5780634ccde688146100e35780637cb4c813146100ed578063c6cfd08e1461010b578063c8d337441461013b5761007d565b8063049878f314610082578063117a5b901461009e5780633ec48a2e146100d9575b600080fd5b61009c60048036038101906100979190610a21565b610157565b005b6100b860048036038101906100b39190610a21565b610335565b6040516100d09c9b9a99989796959493929190610adc565b60405180910390f35b6100e1610466565b005b6100eb610468565b005b6100f5610741565b6040516101029190610b96565b60405180910390f35b61012560048036038101906101209190610a21565b61075b565b6040516101329190610bb1565b60405180910390f35b61015560048036038101906101509190610a21565b610773565b005b600060026000838152602001908152602001600020905080601001600c9054906101000a900460ff16801561019b57508060100160009054906101000a900460ff16155b6101a457600080fd5b3373ffffffffffffffffffffffffffffffffffffffff168160000160009054906101000a900473ffffffffffffffffffffffffffffffffffffffff1673ffffffffffffffffffffffffffffffffffffffff16141561020157600080fd5b338160010160006101000a81548173ffffffffffffffffffffffffffffffffffffffff021916908373ffffffffffffffffffffffffffffffffffffffff160217905550600081600e0160086101000a81548167ffffffffffffffff021916908367ffffffffffffffff16021790555060008160100160026101000a81548160ff02191690831515021790555060018160100160006101000a81548160ff0219169083151502179055506000601081819054906101000a900467ffffffffffffffff16809291906102d090610bfb565b91906101000a81548167ffffffffffffffff021916908367ffffffffffffffff160217905550507f735ef78aed2bd4cfae4d08680b7cb333d4aa561d0287a81d4abbac0b4b64d589600183604051610329929190610c71565b60405180910390a15050565b60026020528060005260406000206000915090508060000160009054906101000a900473ffffffffffffffffffffffffffffffffffffffff16908060010160009054906101000a900473ffffffffffffffffffffffffffffffffffffffff169080600e0160009054906101000a900467ffffffffffffffff169080600e0160089054906101000a900467ffffffffffffffff169080600f0154908060100160009054906101000a900460ff16908060100160019054906101000a900460ff16908060100160029054906101000a900460ff16908060100160039054906101000a900460ff16908060100160049054906101000a900467ffffffffffffffff169080601001600c9054906101000a900460ff169080601001600d9054906101000a900467ffffffffffffffff1690508c565b565b6000620f422f604560008054906101000a900467ffffffffffffffff1661048f9190610c9a565b6104999190610d0b565b90505b600260008267ffffffffffffffff168152602001908152602001600020601001600c9054906101000a900460ff16156104f157620f422f6001826104e09190610d3c565b6104ea9190610d0b565b905061049c565b806000806101000a81548167ffffffffffffffff021916908367ffffffffffffffff1602179055506000600260008367ffffffffffffffff1681526020019081526020016000209050338160000160006101000a81548173ffffffffffffffffffffffffffffffffffffffff021916908373ffffffffffffffffffffffffffffffffffffffff160217905550600081600e0160006101000a81548167ffffffffffffffff021916908367ffffffffffffffff16021790555060008160100160016101000a81548160ff021916908315150217905550600181600f018190555060008160100160006101000a81548160ff021916908315150217905550600181601001600c6101000a81548160ff02191690831515021790555060008160100160036101000a81548160ff0219169083151502179055508167ffffffffffffffff16600160008060089054906101000a900467ffffffffffffffff1667ffffffffffffffff168152602001908152602001600020819055506000600881819054906101000a900467ffffffffffffffff168092919061068e90610bfb565b91906101000a81548167ffffffffffffffff021916908367ffffffffffffffff160217905550503373ffffffffffffffffffffffffffffffffffffffff167f0b00eaed7a0d55952ef3dd90aadf03196cf0a192aec8f034c574b5bf7ab4f0ea836040516106fb9190610dab565b60405180910390a27f735ef78aed2bd4cfae4d08680b7cb333d4aa561d0287a81d4abbac0b4b64d589600083604051610735929190610e01565b60405180910390a15050565b600060089054906101000a900467ffffffffffffffff1681565b60016020528060005260406000206000915090505481565b600060026000838152602001908152602001600020905080601001600c9054906101000a900460ff1680156107b657508060100160009054906101000a900460ff165b80156107d157508060100160039054906101000a900460ff16155b6107da57600080fd5b8060000160009054906101000a900473ffffffffffffffffffffffffffffffffffffffff1673ffffffffffffffffffffffffffffffffffffffff163373ffffffffffffffffffffffffffffffffffffffff1614156108b157600115158160100160019054906101000a900460ff161515141561085557600080fd5b60018160100160016101000a81548160ff0219169083151502179055507fef1aeead3a48aa63ba839793f58e4a7a038dcba7a2b9c6fd48f586bf2c6ec59c6000836040516108a4929190610e2a565b60405180910390a1610985565b8060010160009054906101000a900473ffffffffffffffffffffffffffffffffffffffff1673ffffffffffffffffffffffffffffffffffffffff163373ffffffffffffffffffffffffffffffffffffffff16141561098457600115158160100160029054906101000a900460ff161515141561092c57600080fd5b60018160100160026101000a81548160ff0219169083151502179055507fef1aeead3a48aa63ba839793f58e4a7a038dcba7a2b9c6fd48f586bf2c6ec59c60018360405161097b929190610c71565b60405180910390a15b5b600115158160100160019054906101000a900460ff1615151480156109bf5750600115158160100160029054906101000a900460ff161515145b156109e25760018160100160036101000a81548160ff0219169083151502179055505b5050565b600080fd5b6000819050919050565b6109fe816109eb565b8114610a0957600080fd5b50565b600081359050610a1b816109f5565b92915050565b600060208284031215610a3757610a366109e6565b5b6000610a4584828501610a0c565b91505092915050565b600073ffffffffffffffffffffffffffffffffffffffff82169050919050565b6000610a7982610a4e565b9050919050565b610a8981610a6e565b82525050565b600067ffffffffffffffff82169050919050565b610aac81610a8f565b82525050565b610abb816109eb565b82525050565b60008115159050919050565b610ad681610ac1565b82525050565b600061018082019050610af2600083018f610a80565b610aff602083018e610a80565b610b0c604083018d610aa3565b610b19606083018c610aa3565b610b26608083018b610ab2565b610b3360a083018a610acd565b610b4060c0830189610acd565b610b4d60e0830188610acd565b610b5b610100830187610acd565b610b69610120830186610aa3565b610b77610140830185610acd565b610b85610160830184610aa3565b9d9c50505050505050505050505050565b6000602082019050610bab6000830184610aa3565b92915050565b6000602082019050610bc66000830184610ab2565b92915050565b7f4e487b7100000000000000000000000000000000000000000000000000000000600052601160045260246000fd5b6000610c0682610a8f565b915067ffffffffffffffff821415610c2157610c20610bcc565b5b600182019050919050565b6000819050919050565b6000819050919050565b6000610c5b610c56610c5184610c2c565b610c36565b6109eb565b9050919050565b610c6b81610c40565b82525050565b6000604082019050610c866000830185610c62565b610c936020830184610ab2565b9392505050565b6000610ca582610a8f565b9150610cb083610a8f565b92508167ffffffffffffffff0483118215151615610cd157610cd0610bcc565b5b828202905092915050565b7f4e487b7100000000000000000000000000000000000000000000000000000000600052601260045260246000fd5b6000610d1682610a8f565b9150610d2183610a8f565b925082610d3157610d30610cdc565b5b828206905092915050565b6000610d4782610a8f565b9150610d5283610a8f565b92508267ffffffffffffffff03821115610d6f57610d6e610bcc565b5b828201905092915050565b6000610d95610d90610d8b84610a8f565b610c36565b6109eb565b9050919050565b610da581610d7a565b82525050565b6000602082019050610dc06000830184610d9c565b92915050565b6000819050919050565b6000610deb610de6610de184610dc6565b610c36565b6109eb565b9050919050565b610dfb81610dd0565b82525050565b6000604082019050610e166000830185610df2565b610e236020830184610d9c565b9392505050565b6000604082019050610e3f6000830185610df2565b610e4c6020830184610ab2565b939250505056fea2646970667358221220af1de0ba0257415b3e420d0bd980e5b2e17317fe33e2dccf11699208be794df164736f6c634300080a0033",
  "immutableReferences": {},
  "source": "// SPDX-License-Identifier: MIT\npragma solidity >=0.4.22 <0.9.0;\ncontract Junqi {\n  uint64 constant g = 69;\n  uint64 constant p = 999983;\n\n  uint64 last_id = 1;\n  uint64 public n_games = 0;\n  uint64 n_activegames = 0;\n\n  struct Game{\n      address p1;\n      address p2;\n      int8 [5][12] board;\n      uint64 board1_hash;\n      uint64 board2_hash;\n      uint turn; // 1 for p1, 2 for p2\n      bool active; // two players ready\n      bool p1_finish_setup;\n      bool p2_finish_setup;\n      bool finish_setup;\n      uint64 winner;\n      bool exists; // ?\n      uint64 lastMoves; // ?\n  }\n\n  event Join(uint index, uint gameID); // index: 0 for player1, 1 for player2\n\n  event FinishSetup(uint index, uint gameID); // index: 0 for player1, 1 for player2\n\n  event GameIDs(address indexed from, uint gameID);\n  \n  mapping(uint => uint) public gameList;\n  mapping(uint => Game) public games;\n\n  function declare() external {\n    // pseudorandom gameID\n    uint64 gameID = (last_id * g) % p;\n    while (games[gameID].exists) {\n      gameID = (gameID + 1) % p;\n    }\n    last_id = gameID;\n    \n    Game storage game = games[gameID];\n\n    game.p1 = msg.sender;\n    game.board1_hash = 0;\n    game.p1_finish_setup = false;\n    game.turn = 1;\n    game.active = false;\n    game.exists = true;\n    game.finish_setup = false;\n\n    gameList[n_games] = gameID;\n    n_games++;\n    \n\n    emit GameIDs(msg.sender, gameID);\n    emit Join(0, gameID);\n  }\n  function join(uint gameID) external {\n    Game storage game = games[gameID];\n    require(game.exists && !game.active);\n    require(game.p1 != msg.sender);\n    game.p2 = msg.sender;\n    game.board2_hash = 0;\n    game.p2_finish_setup = false;\n\n    game.active = true;\n    n_activegames++;\n\n    // init the board\n    // -1 for hide player1\n    // -2 for hide player2\n    // 0,...,11 for player1\n    // 12,...,23 for player2\n    // int8 tmp = -1;\n    // for (uint8 i = 0; i<12 ; i++){\n    //    if(i>5){tmp=-2;}  \n    //    for (uint8 j = 0; j<5; j++){\n    //      if((i==2||i==4||i==7||i==9)&&(j==1||j==3)){\n    //        break;\n    //      }\n    //      if((i==3||i==8)&&(j==2)){\n    //        break;\n    //      }\n    //      game.board[j][i]=tmp;\n    //    }\n    //  }\n    // Emit event\n    emit Join(1, gameID);\n  }\n  function finishSetup (uint gameID) external {\n    Game storage game = games[gameID];\n    require(game.exists && game.active&&!game.finish_setup);\n    if(msg.sender == game.p1){\n     require(game.p1_finish_setup!=true);\n     game.p1_finish_setup = true;\n     emit FinishSetup(0,gameID);\n    }else if (msg.sender == game.p2){\n     require(game.p2_finish_setup!=true);\n     game.p2_finish_setup = true;\n     emit FinishSetup(1,gameID);\n    }\n    if(game.p1_finish_setup==true&&game.p2_finish_setup==true){\n     game.finish_setup = true;\n     //emit FinishSetup(2,gameID);\n    }\n  }\n  function move () external {\n\n  }\n  function checkGameEnd() internal{\n\n  }\n}",
  "sourcePath": "/home/yxcy/Desktop/pcs-project/smart_contract/contracts/Junqi.sol",
  "compiler": {
    "name": "solc",
    "version": "0.8.10+commit.fc410830.Emscripten.clang"
  },
  "schemaVersion": "3.4.3",
  "updatedAt": "2021-11-27T00:15:04.865Z",
  "networkType": "ethereum",
  "devdoc": {
    "kind": "dev",
    "methods": {},
    "version": 1
  },
  "userdoc": {
    "kind": "user",
    "methods": {},
    "version": 1
  }
}